

Microchip MPLAB XC8 Assembler V2.10 build 88905656 
                                                                                               Fri Jan 24 13:22:15 2020

Microchip MPLAB XC8 C Compiler v2.10 (Free license) build 20190730164152 Og1 
     1                           	processor	18F26K22
     2                           	fnconf	rparam,??,?,0
     3                           	opt	pw 120
     4                           	opt	flic
     5                           	psect	idataCOMRAM,global,class=CODE,delta=1,noexec
     6                           	psect	idataBANK2,global,class=CODE,delta=1,noexec
     7                           	psect	idataBANK3,global,class=CODE,delta=1,noexec
     8                           	psect	mediumconst,global,reloc=2,class=MEDIUMCONST,delta=1,noexec
     9                           	psect	nvBANK2,global,class=BANK2,space=1,delta=1,lowdata,noexec
    10                           	psect	cinit,global,reloc=2,class=CODE,delta=1
    11                           	psect	bssCOMRAM,global,class=COMRAM,space=1,delta=1,noexec
    12                           	psect	dataCOMRAM,global,class=COMRAM,space=1,delta=1,noexec
    13                           	psect	bssBANK0,global,class=BANK0,space=1,delta=1,lowdata,noexec
    14                           	psect	bssBANK1,global,class=BANK1,space=1,delta=1,lowdata,noexec
    15                           	psect	bssBANK2,global,class=BANK2,space=1,delta=1,lowdata,noexec
    16                           	psect	dataBANK2,global,class=BANK2,space=1,delta=1,lowdata,noexec
    17                           	psect	bssBANK3,global,class=BANK3,space=1,delta=1,lowdata,noexec
    18                           	psect	dataBANK3,global,class=BANK3,space=1,delta=1,lowdata,noexec
    19                           	psect	cstackBANK4,global,class=BANK4,space=1,delta=1,noexec
    20                           	psect	cstackBANK1,global,class=BANK1,space=1,delta=1,noexec
    21                           	psect	cstackBANK0,global,class=BANK0,space=1,delta=1,noexec
    22                           	psect	cstackCOMRAM,global,class=COMRAM,space=1,delta=1,noexec
    23                           	psect	text0,global,reloc=2,class=CODE,delta=1
    24                           	psect	text1,global,reloc=2,class=CODE,delta=1
    25                           	psect	text2,global,reloc=2,class=CODE,delta=1
    26                           	psect	text3,global,reloc=2,class=CODE,delta=1
    27                           	psect	text4,global,reloc=2,class=CODE,delta=1
    28                           	psect	text5,global,reloc=2,class=CODE,delta=1
    29                           	psect	text6,global,reloc=2,class=CODE,delta=1
    30                           	psect	text7,global,reloc=2,class=CODE,delta=1
    31                           	psect	text8,global,reloc=2,class=CODE,delta=1
    32                           	psect	text9,global,reloc=2,class=CODE,delta=1
    33                           	psect	text10,global,reloc=2,class=CODE,delta=1
    34                           	psect	text11,global,reloc=2,class=CODE,delta=1
    35                           	psect	text12,global,reloc=2,class=CODE,delta=1
    36                           	psect	text13,global,reloc=2,class=CODE,delta=1
    37                           	psect	text14,global,reloc=2,class=CODE,delta=1
    38                           	psect	text15,global,reloc=2,class=CODE,delta=1
    39                           	psect	text16,global,reloc=2,class=CODE,delta=1
    40                           	psect	text17,global,reloc=2,class=CODE,delta=1
    41                           	psect	text18,global,reloc=2,class=CODE,delta=1
    42                           	psect	text19,global,reloc=2,class=CODE,delta=1
    43                           	psect	text20,global,reloc=2,class=CODE,delta=1
    44                           	psect	text21,global,reloc=2,class=CODE,delta=1
    45                           	psect	text22,global,reloc=2,class=CODE,delta=1
    46                           	psect	text23,global,reloc=2,class=CODE,delta=1
    47                           	psect	text24,global,reloc=2,class=CODE,delta=1
    48                           	psect	text25,global,reloc=2,class=CODE,delta=1
    49                           	psect	text26,global,reloc=2,class=CODE,delta=1,group=2
    50                           	psect	text27,global,reloc=2,class=CODE,delta=1,group=1
    51                           	psect	text28,global,reloc=2,class=CODE,delta=1
    52                           	psect	text29,global,reloc=2,class=CODE,delta=1
    53                           	psect	text30,global,reloc=2,class=CODE,delta=1
    54                           	psect	text31,global,reloc=2,class=CODE,delta=1
    55                           	psect	text32,global,reloc=2,class=CODE,delta=1,group=2
    56                           	psect	text33,global,reloc=2,class=CODE,delta=1
    57                           	psect	text34,global,reloc=2,class=CODE,delta=1
    58                           	psect	text35,global,reloc=2,class=CODE,delta=1
    59                           	psect	text36,global,reloc=2,class=CODE,delta=1,group=2
    60                           	psect	text37,global,reloc=2,class=CODE,delta=1,group=2
    61                           	psect	text38,global,reloc=2,class=CODE,delta=1,group=2
    62                           	psect	text39,global,reloc=2,class=CODE,delta=1,group=2
    63                           	psect	text40,global,reloc=2,class=CODE,delta=1
    64                           	psect	text41,global,reloc=2,class=CODE,delta=1,group=2
    65                           	psect	text42,global,reloc=2,class=CODE,delta=1,group=2
    66                           	psect	text43,global,reloc=2,class=CODE,delta=1,group=2
    67                           	psect	text44,global,reloc=2,class=CODE,delta=1,group=2
    68                           	psect	text45,global,reloc=2,class=CODE,delta=1,group=2
    69                           	psect	text46,global,reloc=2,class=CODE,delta=1,group=1
    70                           	psect	text47,global,reloc=2,class=CODE,delta=1,group=1
    71                           	psect	text48,global,reloc=2,class=CODE,delta=1,group=1
    72                           	psect	text49,global,reloc=2,class=CODE,delta=1,group=1
    73                           	psect	text50,global,reloc=2,class=CODE,delta=1,group=1
    74                           	psect	text51,global,reloc=2,class=CODE,delta=1,group=1
    75                           	psect	text52,global,reloc=2,class=CODE,delta=1,group=1
    76                           	psect	text53,global,reloc=2,class=CODE,delta=1
    77                           	psect	text54,global,reloc=2,class=CODE,delta=1
    78                           	psect	text55,global,reloc=2,class=CODE,delta=1,group=2
    79                           	psect	text56,global,reloc=2,class=CODE,delta=1,group=2
    80                           	psect	text57,global,reloc=2,class=CODE,delta=1,group=2
    81                           	psect	text58,global,reloc=2,class=CODE,delta=1,group=1
    82                           	psect	text59,global,reloc=2,class=CODE,delta=1,group=1
    83                           	psect	text60,global,reloc=2,class=CODE,delta=1
    84                           	psect	text61,global,reloc=2,class=CODE,delta=1
    85                           	psect	text62,global,reloc=2,class=CODE,delta=1
    86                           	psect	text63,global,reloc=2,class=CODE,delta=1
    87                           	psect	text64,global,reloc=2,class=CODE,delta=1
    88                           	psect	text65,global,reloc=2,class=CODE,delta=1,group=2
    89                           	psect	text66,global,reloc=2,class=CODE,delta=1,group=2
    90                           	psect	text67,global,reloc=2,class=CODE,delta=1,group=2
    91                           	psect	text68,global,reloc=2,class=CODE,delta=1,group=1
    92                           	psect	text69,global,reloc=2,class=CODE,delta=1
    93                           	psect	text70,global,reloc=2,class=CODE,delta=1
    94                           	psect	text71,global,reloc=2,class=CODE,delta=1
    95                           	psect	text72,global,reloc=2,class=CODE,delta=1
    96                           	psect	text73,global,reloc=2,class=CODE,delta=1
    97                           	psect	text74,global,reloc=2,class=CODE,delta=1
    98                           	psect	text75,global,reloc=2,class=CODE,delta=1
    99                           	psect	text76,global,reloc=2,class=CODE,delta=1
   100                           	psect	text77,global,reloc=2,class=CODE,delta=1
   101                           	psect	text78,global,reloc=2,class=CODE,delta=1
   102                           	psect	text79,global,reloc=2,class=CODE,delta=1
   103                           	psect	text80,global,reloc=2,class=CODE,delta=1,group=1
   104                           	psect	text81,global,reloc=2,class=CODE,delta=1
   105                           	psect	text82,global,reloc=2,class=CODE,delta=1
   106                           	psect	text83,global,reloc=2,class=CODE,delta=1,group=2
   107                           	psect	text84,global,reloc=2,class=CODE,delta=1,group=1
   108                           	psect	text85,global,reloc=2,class=CODE,delta=1,group=1
   109                           	psect	text86,global,reloc=2,class=CODE,delta=1,group=1
   110                           	psect	text87,global,reloc=2,class=CODE,delta=1,group=1
   111                           	psect	text88,global,reloc=2,class=CODE,delta=1
   112                           	psect	text89,global,reloc=2,class=CODE,delta=1
   113                           	psect	text90,global,reloc=2,class=CODE,delta=1
   114                           	psect	text91,global,reloc=2,class=CODE,delta=1
   115                           	psect	text92,global,reloc=2,class=CODE,delta=1
   116                           	psect	text93,global,reloc=2,class=CODE,delta=1
   117                           	psect	text94,global,reloc=2,class=CODE,delta=1
   118                           	psect	text95,global,reloc=2,class=CODE,delta=1
   119                           	psect	text96,global,reloc=2,class=CODE,delta=1
   120                           	psect	text97,global,reloc=2,class=CODE,delta=1
   121                           	psect	text98,global,reloc=2,class=CODE,delta=1
   122                           	psect	text99,global,reloc=2,class=CODE,delta=1
   123                           	psect	text100,global,reloc=2,class=CODE,delta=1
   124                           	psect	text101,global,reloc=2,class=CODE,delta=1
   125                           	psect	text102,global,reloc=2,class=CODE,delta=1
   126                           	psect	text103,global,reloc=2,class=CODE,delta=1
   127                           	psect	intcodelo,global,reloc=2,class=CODE,delta=1
   128                           	psect	text105,global,reloc=2,class=CODE,delta=1
   129                           	psect	text106,global,reloc=2,class=CODE,delta=1
   130                           	psect	text107,global,reloc=2,class=CODE,delta=1
   131                           	psect	text108,global,reloc=2,class=CODE,delta=1
   132                           	psect	text109,global,reloc=2,class=CODE,delta=1
   133                           	psect	intcode,global,reloc=2,class=CODE,delta=1
   134                           	psect	intcode_body,global,reloc=2,class=CODE,delta=1
   135                           	psect	intsave_regs,global,class=BIGRAM,space=1,delta=1,noexec
   136                           	psect	rparam,global,class=COMRAM,space=1,delta=1,noexec
   137                           	psect	temp,global,ovrld,common,class=COMRAM,space=1,delta=1
   138  0000                     
   139                           ; Version 2.10
   140                           ; Generated 31/07/2019 GMT
   141                           ; 
   142                           ; Copyright © 2019, Microchip Technology Inc. and its subsidiaries ("Microchip")
   143                           ; All rights reserved.
   144                           ; 
   145                           ; This software is developed by Microchip Technology Inc. and its subsidiaries ("Microch
      +                          ip").
   146                           ; 
   147                           ; Redistribution and use in source and binary forms, with or without modification, are
   148                           ; permitted provided that the following conditions are met:
   149                           ; 
   150                           ;     1. Redistributions of source code must retain the above copyright notice, this lis
      +                          t of
   151                           ;        conditions and the following disclaimer.
   152                           ; 
   153                           ;     2. Redistributions in binary form must reproduce the above copyright notice, this 
      +                          list
   154                           ;        of conditions and the following disclaimer in the documentation and/or other
   155                           ;        materials provided with the distribution.
   156                           ; 
   157                           ;     3. Microchip's name may not be used to endorse or promote products derived from th
      +                          is
   158                           ;        software without specific prior written permission.
   159                           ; 
   160                           ; THIS SOFTWARE IS PROVIDED BY MICROCHIP "AS IS" AND ANY EXPRESS OR IMPLIED WARRANTIES,
   161                           ; INCLUDING, BUT NOT LIMITED TO, THE IMPLIED WARRANTIES OF MERCHANTABILITY AND FITNESS F
      +                          OR
   162                           ; PURPOSE ARE DISCLAIMED.  IN NO EVENT SHALL MICROCHIP BE LIABLE FOR ANY DIRECT, INDIREC
      +                          T,
   163                           ; INCIDENTAL, SPECIAL, EXEMPLARY, OR CONSEQUENTIAL DAMAGES (INCLUDING BUT NOT LIMITED TO
   164                           ; PROCUREMENT OF SUBSTITUTE GOODS OR SERVICES; LOSS OF USE, DATA OR PROFITS; OR BUSINESS
   165                           ; INTERRUPTION) HOWSOEVER CAUSED AND ON ANY THEORY OF LIABILITY, WHETHER IN CONTRACT, ST
      +                          RICT
   166                           ; LIABILITY, OR TORT (INCLUDING NEGLIGENCE OR OTHERWISE) ARISING IN ANY WAY OUT OF THE U
      +                          SE OF
   167                           ; THIS SOFTWARE, EVEN IF ADVISED OF THE POSSIBILITY OF SUCH DAMAGE.
   168                           ; 
   169                           ; 
   170                           ; Code-generator required, PIC18F26K22 Definitions
   171                           ; 
   172                           ; SFR Addresses
   173  0000                     
   174 ;; Function _utx is unused but had its address taken
   175  0000                     
   176 ;; Function _urx is unused but had its address taken
   177  0000                     
   178 ;; Function _action_hook is unused but had its address taken
   179  0000                     
   180                           	psect	idataCOMRAM
   181  007C02                     __pidataCOMRAM:
   182                           	opt callstack 0
   183                           
   184                           ;initializer for BlinkAlive@aliveCount
   185  007C02  FA                 	db	250
   186                           
   187                           	psect	idataBANK2
   188  007C00                     __pidataBANK2:
   189                           	opt callstack 0
   190                           
   191                           ;initializer for _usrobj
   192  007C00  2E                 	db	low _myPuts
   193  007C01  78                 	db	high _myPuts
   194                           
   195                           	psect	idataBANK3
   196  006F74                     __pidataBANK3:
   197                           	opt callstack 0
   198                           
   199                           ;initializer for _table
   200  006F74  E7                 	db	low STR_1
   201  006F75  FF                 	db	high STR_1
   202  006F76  8C                 	db	low _usrcmd_LED
   203  006F77  64                 	db	high _usrcmd_LED
   204  006F78  F7                 	db	low STR_2
   205  006F79  FF                 	db	high STR_2
   206  006F7A  8C                 	db	low _usrcmd_LED
   207  006F7B  64                 	db	high _usrcmd_LED
   208  006F7C  E5                 	db	low (STR_36+27)
   209  006F7D  FD                 	db	high (STR_36+27)
   210  006F7E  22                 	db	low _usrcmd_Counter
   211  006F7F  3B                 	db	high _usrcmd_Counter
   212  006F80  F1                 	db	low STR_4
   213  006F81  FF                 	db	high STR_4
   214  006F82  22                 	db	low _usrcmd_Counter
   215  006F83  3B                 	db	high _usrcmd_Counter
   216  006F84  93                 	db	low STR_5
   217  006F85  FF                 	db	high STR_5
   218  006F86  5C                 	db	low _usrcmd_ClearScreen
   219  006F87  75                 	db	high _usrcmd_ClearScreen
   220  006F88  81                 	db	low (STR_174+2)
   221  006F89  FF                 	db	high (STR_174+2)
   222  006F8A  52                 	db	low _usrcmd_Speed
   223  006F8B  17                 	db	high _usrcmd_Speed
   224  006F8C  95                 	db	low (STR_5+2)
   225  006F8D  FF                 	db	high (STR_5+2)
   226  006F8E  52                 	db	low _usrcmd_Speed
   227  006F8F  17                 	db	high _usrcmd_Speed
   228  006F90  61                 	db	low (STR_184+2)
   229  006F91  FF                 	db	high (STR_184+2)
   230  006F92  94                 	db	low _usrcmd_Brake
   231  006F93  5E                 	db	high _usrcmd_Brake
   232  006F94  EF                 	db	low STR_9
   233  006F95  FF                 	db	high STR_9
   234  006F96  94                 	db	low _usrcmd_Brake
   235  006F97  5E                 	db	high _usrcmd_Brake
   236  006F98  E3                 	db	low STR_10
   237  006F99  FF                 	db	high STR_10
   238  006F9A  16                 	db	low _usrcmd_GateTime
   239  006F9B  46                 	db	high _usrcmd_GateTime
   240  006F9C  F5                 	db	low STR_11
   241  006F9D  FF                 	db	high STR_11
   242  006F9E  16                 	db	low _usrcmd_GateTime
   243  006F9F  46                 	db	high _usrcmd_GateTime
   244  006FA0  A6                 	db	low STR_12
   245  006FA1  FF                 	db	high STR_12
   246  006FA2  EA                 	db	low _usrcmd_ConstantP
   247  006FA3  2A                 	db	high _usrcmd_ConstantP
   248  006FA4  A3                 	db	low STR_13
   249  006FA5  FF                 	db	high STR_13
   250  006FA6  68                 	db	low _usrcmd_ConstantN
   251  006FA7  26                 	db	high _usrcmd_ConstantN
   252  006FA8  75                 	db	low (STR_171+2)
   253  006FA9  FF                 	db	high (STR_171+2)
   254  006FAA  D0                 	db	low _usrcmd_Position
   255  006FAB  43                 	db	high _usrcmd_Position
   256  006FAC  A7                 	db	low (STR_12+1)
   257  006FAD  FF                 	db	high (STR_12+1)
   258  006FAE  D0                 	db	low _usrcmd_Position
   259  006FAF  43                 	db	high _usrcmd_Position
   260  006FB0  E9                 	db	low STR_16
   261  006FB1  FF                 	db	high STR_16
   262  006FB2  80                 	db	low _usrcmd_Mode
   263  006FB3  5D                 	db	high _usrcmd_Mode
   264  006FB4  F9                 	db	low STR_17
   265  006FB5  FF                 	db	high STR_17
   266  006FB6  80                 	db	low _usrcmd_Mode
   267  006FB7  5D                 	db	high _usrcmd_Mode
   268  006FB8  EB                 	db	low STR_18
   269  006FB9  FF                 	db	high STR_18
   270  006FBA  0A                 	db	low _usrcmd_TA
   271  006FBB  50                 	db	high _usrcmd_TA
   272  006FBC  FB                 	db	low STR_19
   273  006FBD  FF                 	db	high STR_19
   274  006FBE  0A                 	db	low _usrcmd_TA
   275  006FBF  50                 	db	high _usrcmd_TA
   276  006FC0  E1                 	db	low STR_20
   277  006FC1  FF                 	db	high STR_20
   278  006FC2  6C                 	db	low _usrcmd_Echo
   279  006FC3  65                 	db	high _usrcmd_Echo
   280  006FC4  F3                 	db	low STR_21
   281  006FC5  FF                 	db	high STR_21
   282  006FC6  6C                 	db	low _usrcmd_Echo
   283  006FC7  65                 	db	high _usrcmd_Echo
   284  006FC8  4D                 	db	low (STR_195+2)
   285  006FC9  FF                 	db	high (STR_195+2)
   286  006FCA  D4                 	db	low _usrcmd_Frequency
   287  006FCB  67                 	db	high _usrcmd_Frequency
   288  006FCC  9B                 	db	low (STR_212+1)
   289  006FCD  FF                 	db	high (STR_212+1)
   290  006FCE  D4                 	db	low _usrcmd_Frequency
   291  006FCF  67                 	db	high _usrcmd_Frequency
   292  006FD0  C2                 	db	low (STR_34+9)
   293  006FD1  FE                 	db	high (STR_34+9)
   294  006FD2  92                 	db	low _usrcmd_Debug
   295  006FD3  57                 	db	high _usrcmd_Debug
   296  006FD4  44                 	db	low (STR_40+3)
   297  006FD5  FF                 	db	high (STR_40+3)
   298  006FD6  92                 	db	low _usrcmd_Debug
   299  006FD7  57                 	db	high _usrcmd_Debug
   300  006FD8  ED                 	db	low STR_26
   301  006FD9  FF                 	db	high STR_26
   302  006FDA  DC                 	db	low _usrcmd_Version
   303  006FDB  6D                 	db	high _usrcmd_Version
   304  006FDC  FD                 	db	low STR_27
   305  006FDD  FF                 	db	high STR_27
   306  006FDE  DC                 	db	low _usrcmd_Version
   307  006FDF  6D                 	db	high _usrcmd_Version
   308  006FE0  E5                 	db	low STR_28
   309  006FE1  FF                 	db	high STR_28
   310  006FE2  C2                 	db	low _usrcmd_I2C
   311  006FE3  7B                 	db	high _usrcmd_I2C
   312  006FE4  9E                 	db	low (STR_207+1)
   313  006FE5  FF                 	db	high (STR_207+1)
   314  006FE6  C2                 	db	low _usrcmd_I2C
   315  006FE7  7B                 	db	high _usrcmd_I2C
   316  006FE8  DF                 	db	low STR_30
   317  006FE9  FF                 	db	high STR_30
   318  006FEA  B6                 	db	low _usrcmd_Help
   319  006FEB  7B                 	db	high _usrcmd_Help
   320  006FEC  46                 	db	low STR_31
   321  006FED  FF                 	db	high STR_31
   322  006FEE  B6                 	db	low _usrcmd_Help
   323  006FEF  7B                 	db	high _usrcmd_Help
   324                           
   325                           	psect	mediumconst
   326  00FCBC                     __pmediumconst:
   327                           	opt callstack 0
   328  00FCBC  00                 	db	0
   329  00FCBD  0041               	dw	65
   330  00FCBF                     __end_ofmscore_push@N:
   331                           	opt callstack 0
   332  00FCBF                     _kmlist:
   333                           	opt callstack 0
   334  00FCBF  B7                 	db	low STR_128
   335  00FCC0  FF                 	db	high STR_128
   336  00FCC1  02                 	db	2
   337  00FCC2  DB                 	db	low STR_129
   338  00FCC3  FF                 	db	high STR_129
   339  00FCC4  03                 	db	3
   340  00FCC5  B9                 	db	low STR_130
   341  00FCC6  FF                 	db	high STR_130
   342  00FCC7  04                 	db	4
   343  00FCC8  23                 	db	low STR_131
   344  00FCC9  FF                 	db	high STR_131
   345  00FCCA  05                 	db	5
   346  00FCCB  BF                 	db	low STR_132
   347  00FCCC  FF                 	db	high STR_132
   348  00FCCD  06                 	db	6
   349  00FCCE  A9                 	db	low STR_133
   350  00FCCF  FF                 	db	high STR_133
   351  00FCD0  07                 	db	7
   352  00FCD1  AB                 	db	low STR_134
   353  00FCD2  FF                 	db	high STR_134
   354  00FCD3  08                 	db	8
   355  00FCD4  AD                 	db	low STR_135
   356  00FCD5  FF                 	db	high STR_135
   357  00FCD6  09                 	db	9
   358  00FCD7  AF                 	db	low STR_136
   359  00FCD8  FF                 	db	high STR_136
   360  00FCD9  0A                 	db	10
   361  00FCDA  B1                 	db	low STR_137
   362  00FCDB  FF                 	db	high STR_137
   363  00FCDC  0B                 	db	11
   364  00FCDD  B3                 	db	low STR_138
   365  00FCDE  FF                 	db	high STR_138
   366  00FCDF  0C                 	db	12
   367  00FCE0  B5                 	db	low STR_139
   368  00FCE1  FF                 	db	high STR_139
   369  00FCE2  0D                 	db	13
   370  00FCE3  B7                 	db	low STR_128
   371  00FCE4  FF                 	db	high STR_128
   372  00FCE5  0E                 	db	14
   373  00FCE6  B9                 	db	low STR_130
   374  00FCE7  FF                 	db	high STR_130
   375  00FCE8  0F                 	db	15
   376  00FCE9  FC                 	db	low (STR_45+21)
   377  00FCEA  FD                 	db	high (STR_45+21)
   378  00FCEB  10                 	db	16
   379  00FCEC  BB                 	db	low STR_143
   380  00FCED  FF                 	db	high STR_143
   381  00FCEE  11                 	db	17
   382  00FCEF  BD                 	db	low STR_144
   383  00FCF0  FF                 	db	high STR_144
   384  00FCF1  12                 	db	18
   385  00FCF2  BF                 	db	low STR_132
   386  00FCF3  FF                 	db	high STR_132
   387  00FCF4  13                 	db	19
   388  00FCF5  C1                 	db	low STR_146
   389  00FCF6  FF                 	db	high STR_146
   390  00FCF7  14                 	db	20
   391  00FCF8  C3                 	db	low STR_147
   392  00FCF9  FF                 	db	high STR_147
   393  00FCFA  15                 	db	21
   394  00FCFB  C5                 	db	low STR_148
   395  00FCFC  FF                 	db	high STR_148
   396  00FCFD  16                 	db	22
   397  00FCFE  C7                 	db	low STR_149
   398  00FCFF  FF                 	db	high STR_149
   399  00FD00  17                 	db	23
   400  00FD01  C9                 	db	low STR_150
   401  00FD02  FF                 	db	high STR_150
   402  00FD03  18                 	db	24
   403  00FD04  CB                 	db	low STR_151
   404  00FD05  FF                 	db	high STR_151
   405  00FD06  19                 	db	25
   406  00FD07  CD                 	db	low STR_152
   407  00FD08  FF                 	db	high STR_152
   408  00FD09  1A                 	db	26
   409  00FD0A  CF                 	db	low STR_153
   410  00FD0B  FF                 	db	high STR_153
   411  00FD0C  1B                 	db	27
   412  00FD0D  D1                 	db	low STR_154
   413  00FD0E  FF                 	db	high STR_154
   414  00FD0F  1C                 	db	28
   415  00FD10  D3                 	db	low STR_155
   416  00FD11  FF                 	db	high STR_155
   417  00FD12  1D                 	db	29
   418  00FD13  D5                 	db	low STR_156
   419  00FD14  FF                 	db	high STR_156
   420  00FD15  1E                 	db	30
   421  00FD16  D7                 	db	low STR_157
   422  00FD17  FF                 	db	high STR_157
   423  00FD18  1F                 	db	31
   424  00FD19  D9                 	db	low STR_158
   425  00FD1A  FF                 	db	high STR_158
   426  00FD1B  20                 	db	32
   427  00FD1C  CA                 	db	low STR_159
   428  00FD1D  FE                 	db	high STR_159
   429  00FD1E  21                 	db	33
   430  00FD1F  D6                 	db	low STR_160
   431  00FD20  FE                 	db	high STR_160
   432  00FD21  22                 	db	34
   433  00FD22  E2                 	db	low STR_161
   434  00FD23  FE                 	db	high STR_161
   435  00FD24  23                 	db	35
   436  00FD25  EE                 	db	low STR_162
   437  00FD26  FE                 	db	high STR_162
   438  00FD27  24                 	db	36
   439  00FD28  FA                 	db	low STR_163
   440  00FD29  FE                 	db	high STR_163
   441  00FD2A  25                 	db	37
   442  00FD2B  00                 	db	low STR_164
   443  00FD2C  FF                 	db	high STR_164
   444  00FD2D  26                 	db	38
   445  00FD2E  06                 	db	low STR_165
   446  00FD2F  FF                 	db	high STR_165
   447  00FD30  27                 	db	39
   448  00FD31  0C                 	db	low STR_166
   449  00FD32  FF                 	db	high STR_166
   450  00FD33  28                 	db	40
   451  00FD34  C4                 	db	low STR_167
   452  00FD35  FE                 	db	high STR_167
   453  00FD36  29                 	db	41
   454  00FD37  D0                 	db	low STR_168
   455  00FD38  FE                 	db	high STR_168
   456  00FD39  2A                 	db	42
   457  00FD3A  DC                 	db	low STR_169
   458  00FD3B  FE                 	db	high STR_169
   459  00FD3C  2B                 	db	43
   460  00FD3D  E8                 	db	low STR_170
   461  00FD3E  FE                 	db	high STR_170
   462  00FD3F  2C                 	db	44
   463  00FD40  73                 	db	low STR_171
   464  00FD41  FF                 	db	high STR_171
   465  00FD42  21                 	db	33
   466  00FD43  77                 	db	low STR_172
   467  00FD44  FF                 	db	high STR_172
   468  00FD45  22                 	db	34
   469  00FD46  7B                 	db	low STR_173
   470  00FD47  FF                 	db	high STR_173
   471  00FD48  23                 	db	35
   472  00FD49  7F                 	db	low STR_174
   473  00FD4A  FF                 	db	high STR_174
   474  00FD4B  24                 	db	36
   475  00FD4C  FA                 	db	low STR_163
   476  00FD4D  FE                 	db	high STR_163
   477  00FD4E  25                 	db	37
   478  00FD4F  00                 	db	low STR_164
   479  00FD50  FF                 	db	high STR_164
   480  00FD51  26                 	db	38
   481  00FD52  06                 	db	low STR_165
   482  00FD53  FF                 	db	high STR_165
   483  00FD54  27                 	db	39
   484  00FD55  0C                 	db	low STR_166
   485  00FD56  FF                 	db	high STR_166
   486  00FD57  28                 	db	40
   487  00FD58  D0                 	db	low STR_168
   488  00FD59  FE                 	db	high STR_168
   489  00FD5A  29                 	db	41
   490  00FD5B  DC                 	db	low STR_169
   491  00FD5C  FE                 	db	high STR_169
   492  00FD5D  2A                 	db	42
   493  00FD5E  E8                 	db	low STR_170
   494  00FD5F  FE                 	db	high STR_170
   495  00FD60  2B                 	db	43
   496  00FD61  F4                 	db	low STR_182
   497  00FD62  FE                 	db	high STR_182
   498  00FD63  2C                 	db	44
   499  00FD64  5B                 	db	low STR_183
   500  00FD65  FF                 	db	high STR_183
   501  00FD66  2D                 	db	45
   502  00FD67  5F                 	db	low STR_184
   503  00FD68  FF                 	db	high STR_184
   504  00FD69  2E                 	db	46
   505  00FD6A  63                 	db	low STR_185
   506  00FD6B  FF                 	db	high STR_185
   507  00FD6C  30                 	db	48
   508  00FD6D  67                 	db	low STR_186
   509  00FD6E  FF                 	db	high STR_186
   510  00FD6F  2F                 	db	47
   511  00FD70  6F                 	db	low STR_187
   512  00FD71  FF                 	db	high STR_187
   513  00FD72  31                 	db	49
   514  00FD73  6B                 	db	low STR_188
   515  00FD74  FF                 	db	high STR_188
   516  00FD75  32                 	db	50
   517  00FD76  1E                 	db	low STR_189
   518  00FD77  FF                 	db	high STR_189
   519  00FD78  31                 	db	49
   520  00FD79  28                 	db	low STR_190
   521  00FD7A  FF                 	db	high STR_190
   522  00FD7B  32                 	db	50
   523  00FD7C  2D                 	db	low STR_191
   524  00FD7D  FF                 	db	high STR_191
   525  00FD7E  33                 	db	51
   526  00FD7F  32                 	db	low STR_192
   527  00FD80  FF                 	db	high STR_192
   528  00FD81  34                 	db	52
   529  00FD82                     __end_of_kmlist:
   530                           	opt callstack 0
   531  00FD82                     STR_194:
   532  00FD82  7A                 	db	122	;'z'
   533  00FD83  79                 	db	121	;'y'
   534  00FD84  78                 	db	120	;'x'
   535  00FD85  77                 	db	119	;'w'
   536  00FD86  76                 	db	118	;'v'
   537  00FD87  75                 	db	117	;'u'
   538  00FD88  74                 	db	116	;'t'
   539  00FD89  73                 	db	115	;'s'
   540  00FD8A  72                 	db	114	;'r'
   541  00FD8B  71                 	db	113	;'q'
   542  00FD8C  70                 	db	112	;'p'
   543  00FD8D  6F                 	db	111	;'o'
   544  00FD8E  6E                 	db	110	;'n'
   545  00FD8F  6D                 	db	109	;'m'
   546  00FD90  6C                 	db	108	;'l'
   547  00FD91  6B                 	db	107	;'k'
   548  00FD92  6A                 	db	106	;'j'
   549  00FD93  69                 	db	105	;'i'
   550  00FD94  68                 	db	104	;'h'
   551  00FD95  67                 	db	103	;'g'
   552  00FD96  66                 	db	102	;'f'
   553  00FD97  65                 	db	101	;'e'
   554  00FD98  64                 	db	100	;'d'
   555  00FD99  63                 	db	99	;'c'
   556  00FD9A  62                 	db	98	;'b'
   557  00FD9B  61                 	db	97	;'a'
   558  00FD9C  39                 	db	57	;'9'
   559  00FD9D  38                 	db	56	;'8'
   560  00FD9E  37                 	db	55	;'7'
   561  00FD9F  36                 	db	54	;'6'
   562  00FDA0  35                 	db	53	;'5'
   563  00FDA1  34                 	db	52	;'4'
   564  00FDA2  33                 	db	51	;'3'
   565  00FDA3  32                 	db	50	;'2'
   566  00FDA4  31                 	db	49	;'1'
   567  00FDA5  30                 	db	48	;'0'
   568  00FDA6  31                 	db	49	;'1'
   569  00FDA7  32                 	db	50	;'2'
   570  00FDA8  33                 	db	51	;'3'
   571  00FDA9  34                 	db	52	;'4'
   572  00FDAA  35                 	db	53	;'5'
   573  00FDAB  36                 	db	54	;'6'
   574  00FDAC  37                 	db	55	;'7'
   575  00FDAD  38                 	db	56	;'8'
   576  00FDAE  39                 	db	57	;'9'
   577  00FDAF  61                 	db	97	;'a'
   578  00FDB0  62                 	db	98	;'b'
   579  00FDB1  63                 	db	99	;'c'
   580  00FDB2  64                 	db	100	;'d'
   581  00FDB3  65                 	db	101	;'e'
   582  00FDB4  66                 	db	102	;'f'
   583  00FDB5  67                 	db	103	;'g'
   584  00FDB6  68                 	db	104	;'h'
   585  00FDB7  69                 	db	105	;'i'
   586  00FDB8  6A                 	db	106	;'j'
   587  00FDB9  6B                 	db	107	;'k'
   588  00FDBA  6C                 	db	108	;'l'
   589  00FDBB  6D                 	db	109	;'m'
   590  00FDBC  6E                 	db	110	;'n'
   591  00FDBD  6F                 	db	111	;'o'
   592  00FDBE  70                 	db	112	;'p'
   593  00FDBF  71                 	db	113	;'q'
   594  00FDC0  72                 	db	114	;'r'
   595  00FDC1  73                 	db	115	;'s'
   596  00FDC2  74                 	db	116	;'t'
   597  00FDC3  75                 	db	117	;'u'
   598  00FDC4  76                 	db	118	;'v'
   599  00FDC5  77                 	db	119	;'w'
   600  00FDC6  78                 	db	120	;'x'
   601  00FDC7  79                 	db	121	;'y'
   602  00FDC8  7A                 	db	122	;'z'
   603  00FDC9  00                 	db	0
   604  00FDCA                     STR_36:
   605  00FDCA  20                 	db	32
   606  00FDCB  62                 	db	98	;'b'
   607  00FDCC  79                 	db	121	;'y'
   608  00FDCD  20                 	db	32
   609  00FDCE  28                 	db	40
   610  00FDCF  63                 	db	99	;'c'
   611  00FDD0  29                 	db	41
   612  00FDD1  20                 	db	32
   613  00FDD2  32                 	db	50	;'2'
   614  00FDD3  30                 	db	48	;'0'
   615  00FDD4  31                 	db	49	;'1'
   616  00FDD5  39                 	db	57	;'9'
   617  00FDD6  20                 	db	32
   618  00FDD7  4F                 	db	79	;'O'
   619  00FDD8  6D                 	db	109	;'m'
   620  00FDD9  69                 	db	105	;'i'
   621  00FDDA  79                 	db	121	;'y'
   622  00FDDB  61                 	db	97	;'a'
   623  00FDDC  2D                 	db	45
   624  00FDDD  47                 	db	71	;'G'
   625  00FDDE  69                 	db	105	;'i'
   626  00FDDF  6B                 	db	107	;'k'
   627  00FDE0  65                 	db	101	;'e'
   628  00FDE1  6E                 	db	110	;'n'
   629  00FDE2  20                 	db	32
   630  00FDE3  4C                 	db	76	;'L'
   631  00FDE4  4C                 	db	76	;'L'
   632  00FDE5  43                 	db	67	;'C'
   633  00FDE6  00                 	db	0
   634  00FDE7                     STR_45:
   635  00FDE7  20                 	db	32
   636  00FDE8  20                 	db	32
   637  00FDE9  22                 	db	34
   638  00FDEA  67                 	db	103	;'g'
   639  00FDEB  54                 	db	84	;'T'
   640  00FDEC  69                 	db	105	;'i'
   641  00FDED  6D                 	db	109	;'m'
   642  00FDEE  65                 	db	101	;'e'
   643  00FDEF  72                 	db	114	;'r'
   644  00FDF0  31                 	db	49	;'1'
   645  00FDF1  6D                 	db	109	;'m'
   646  00FDF2  73                 	db	115	;'s'
   647  00FDF3  22                 	db	34
   648  00FDF4  3A                 	db	58	;':'
   649  00FDF5  20                 	db	32
   650  00FDF6  20                 	db	32
   651  00FDF7  25                 	db	37
   652  00FDF8  6C                 	db	108	;'l'
   653  00FDF9  64                 	db	100	;'d'
   654  00FDFA  2C                 	db	44
   655  00FDFB  0D                 	db	13
   656  00FDFC  0A                 	db	10
   657  00FDFD  00                 	db	0
   658  00FDFE                     STR_57:
   659  00FDFE  20                 	db	32
   660  00FDFF  20                 	db	32
   661  00FE00  22                 	db	34
   662  00FE01  67                 	db	103	;'g'
   663  00FE02  43                 	db	67	;'C'
   664  00FE03  75                 	db	117	;'u'
   665  00FE04  72                 	db	114	;'r'
   666  00FE05  72                 	db	114	;'r'
   667  00FE06  65                 	db	101	;'e'
   668  00FE07  6E                 	db	110	;'n'
   669  00FE08  74                 	db	116	;'t'
   670  00FE09  54                 	db	84	;'T'
   671  00FE0A  61                 	db	97	;'a'
   672  00FE0B  72                 	db	114	;'r'
   673  00FE0C  67                 	db	103	;'g'
   674  00FE0D  65                 	db	101	;'e'
   675  00FE0E  74                 	db	116	;'t'
   676  00FE0F  22                 	db	34
   677  00FE10  3A                 	db	58	;':'
   678  00FE11  5B                 	db	91	;'['
   679  00FE12  00                 	db	0
   680  00FE13                     STR_85:
   681  00FE13  67                 	db	103	;'g'
   682  00FE14  46                 	db	70	;'F'
   683  00FE15  6C                 	db	108	;'l'
   684  00FE16  67                 	db	103	;'g'
   685  00FE17  54                 	db	84	;'T'
   686  00FE18  7A                 	db	122	;'z'
   687  00FE19  45                 	db	69	;'E'
   688  00FE1A  6E                 	db	110	;'n'
   689  00FE1B  61                 	db	97	;'a'
   690  00FE1C  62                 	db	98	;'b'
   691  00FE1D  6C                 	db	108	;'l'
   692  00FE1E  65                 	db	101	;'e'
   693  00FE1F  20                 	db	32
   694  00FE20  3D                 	db	61	;'='
   695  00FE21  20                 	db	32
   696  00FE22  25                 	db	37
   697  00FE23  64                 	db	100	;'d'
   698  00FE24  0D                 	db	13
   699  00FE25  0A                 	db	10
   700  00FE26  00                 	db	0
   701  00FE27                     STR_51:
   702  00FE27  67                 	db	103	;'g'
   703  00FE28  43                 	db	67	;'C'
   704  00FE29  75                 	db	117	;'u'
   705  00FE2A  72                 	db	114	;'r'
   706  00FE2B  72                 	db	114	;'r'
   707  00FE2C  65                 	db	101	;'e'
   708  00FE2D  6E                 	db	110	;'n'
   709  00FE2E  74                 	db	116	;'t'
   710  00FE2F  54                 	db	84	;'T'
   711  00FE30  61                 	db	97	;'a'
   712  00FE31  72                 	db	114	;'r'
   713  00FE32  67                 	db	103	;'g'
   714  00FE33  65                 	db	101	;'e'
   715  00FE34  74                 	db	116	;'t'
   716  00FE35  20                 	db	32
   717  00FE36  3D                 	db	61	;'='
   718  00FE37  20                 	db	32
   719  00FE38  00                 	db	0
   720  00FE39                     STR_82:
   721  00FE39  0D                 	db	13
   722  00FE3A  0A                 	db	10
   723  00FE3B  25                 	db	37
   724  00FE3C  6C                 	db	108	;'l'
   725  00FE3D  64                 	db	100	;'d'
   726  00FE3E  20                 	db	32
   727  00FE3F  25                 	db	37
   728  00FE40  6C                 	db	108	;'l'
   729  00FE41  64                 	db	100	;'d'
   730  00FE42  20                 	db	32
   731  00FE43  25                 	db	37
   732  00FE44  6C                 	db	108	;'l'
   733  00FE45  64                 	db	100	;'d'
   734  00FE46  20                 	db	32
   735  00FE47  25                 	db	37
   736  00FE48  6C                 	db	108	;'l'
   737  00FE49  64                 	db	100	;'d'
   738  00FE4A  00                 	db	0
   739  00FE4B                     STR_86:
   740  00FE4B  67                 	db	103	;'g'
   741  00FE4C  54                 	db	84	;'T'
   742  00FE4D  7A                 	db	122	;'z'
   743  00FE4E  50                 	db	80	;'P'
   744  00FE4F  65                 	db	101	;'e'
   745  00FE50  72                 	db	114	;'r'
   746  00FE51  69                 	db	105	;'i'
   747  00FE52  6F                 	db	111	;'o'
   748  00FE53  64                 	db	100	;'d'
   749  00FE54  20                 	db	32
   750  00FE55  3D                 	db	61	;'='
   751  00FE56  20                 	db	32
   752  00FE57  25                 	db	37
   753  00FE58  64                 	db	100	;'d'
   754  00FE59  0D                 	db	13
   755  00FE5A  0A                 	db	10
   756  00FE5B  00                 	db	0
   757  00FE5C                     STR_46:
   758  00FE5C  20                 	db	32
   759  00FE5D  20                 	db	32
   760  00FE5E  22                 	db	34
   761  00FE5F  67                 	db	103	;'g'
   762  00FE60  43                 	db	67	;'C'
   763  00FE61  6F                 	db	111	;'o'
   764  00FE62  75                 	db	117	;'u'
   765  00FE63  6E                 	db	110	;'n'
   766  00FE64  74                 	db	116	;'t'
   767  00FE65  45                 	db	69	;'E'
   768  00FE66  6E                 	db	110	;'n'
   769  00FE67  63                 	db	99	;'c'
   770  00FE68  22                 	db	34
   771  00FE69  3A                 	db	58	;':'
   772  00FE6A  5B                 	db	91	;'['
   773  00FE6B  00                 	db	0
   774  00FE6C                     STR_87:
   775  00FE6C  67                 	db	103	;'g'
   776  00FE6D  54                 	db	84	;'T'
   777  00FE6E  7A                 	db	122	;'z'
   778  00FE6F  53                 	db	83	;'S'
   779  00FE70  74                 	db	116	;'t'
   780  00FE71  65                 	db	101	;'e'
   781  00FE72  70                 	db	112	;'p'
   782  00FE73  20                 	db	32
   783  00FE74  3D                 	db	61	;'='
   784  00FE75  20                 	db	32
   785  00FE76  25                 	db	37
   786  00FE77  64                 	db	100	;'d'
   787  00FE78  0D                 	db	13
   788  00FE79  0A                 	db	10
   789  00FE7A  00                 	db	0
   790  00FE7B                     STR_68:
   791  00FE7B  0D                 	db	13
   792  00FE7C  0A                 	db	10
   793  00FE7D  44                 	db	68	;'D'
   794  00FE7E  20                 	db	32
   795  00FE7F  3D                 	db	61	;'='
   796  00FE80  20                 	db	32
   797  00FE81  25                 	db	37
   798  00FE82  2E                 	db	46
   799  00FE83  33                 	db	51	;'3'
   800  00FE84  66                 	db	102	;'f'
   801  00FE85  0D                 	db	13
   802  00FE86  0A                 	db	10
   803  00FE87  00                 	db	0
   804  00FE88                     STR_67:
   805  00FE88  0D                 	db	13
   806  00FE89  0A                 	db	10
   807  00FE8A  49                 	db	73	;'I'
   808  00FE8B  20                 	db	32
   809  00FE8C  3D                 	db	61	;'='
   810  00FE8D  20                 	db	32
   811  00FE8E  25                 	db	37
   812  00FE8F  2E                 	db	46
   813  00FE90  33                 	db	51	;'3'
   814  00FE91  66                 	db	102	;'f'
   815  00FE92  0D                 	db	13
   816  00FE93  0A                 	db	10
   817  00FE94  00                 	db	0
   818  00FE95                     STR_66:
   819  00FE95  0D                 	db	13
   820  00FE96  0A                 	db	10
   821  00FE97  50                 	db	80	;'P'
   822  00FE98  20                 	db	32
   823  00FE99  3D                 	db	61	;'='
   824  00FE9A  20                 	db	32
   825  00FE9B  25                 	db	37
   826  00FE9C  2E                 	db	46
   827  00FE9D  33                 	db	51	;'3'
   828  00FE9E  66                 	db	102	;'f'
   829  00FE9F  0D                 	db	13
   830  00FEA0  0A                 	db	10
   831  00FEA1  00                 	db	0
   832  00FEA2                     STR_33:
   833  00FEA2  20                 	db	32
   834  00FEA3  20                 	db	32
   835  00FEA4  20                 	db	32
   836  00FEA5  20                 	db	32
   837  00FEA6  2A                 	db	42
   838  00FEA7  2A                 	db	42
   839  00FEA8  2A                 	db	42
   840  00FEA9  20                 	db	32
   841  00FEAA  20                 	db	32
   842  00FEAB  20                 	db	32
   843  00FEAC  20                 	db	32
   844  00FEAD  00                 	db	0
   845  00FEAE                     STR_35:
   846  00FEAE  20                 	db	32
   847  00FEAF  56                 	db	86	;'V'
   848  00FEB0  65                 	db	101	;'e'
   849  00FEB1  72                 	db	114	;'r'
   850  00FEB2  2E                 	db	46
   851  00FEB3  31                 	db	49	;'1'
   852  00FEB4  2E                 	db	46
   853  00FEB5  31                 	db	49	;'1'
   854  00FEB6  2E                 	db	46
   855  00FEB7  30                 	db	48	;'0'
   856  00FEB8  00                 	db	0
   857  00FEB9                     STR_34:
   858  00FEB9  47                 	db	71	;'G'
   859  00FEBA  72                 	db	114	;'r'
   860  00FEBB  6F                 	db	111	;'o'
   861  00FEBC  6F                 	db	111	;'o'
   862  00FEBD  76                 	db	118	;'v'
   863  00FEBE  79                 	db	121	;'y'
   864  00FEBF  2D                 	db	45
   865  00FEC0  50                 	db	80	;'P'
   866  00FEC1  49                 	db	73	;'I'
   867  00FEC2  44                 	db	68	;'D'
   868  00FEC3  00                 	db	0
   869  00FEC4                     STR_167:
   870  00FEC4  1B                 	db	27
   871  00FEC5  5B                 	db	91	;'['
   872  00FEC6  32                 	db	50	;'2'
   873  00FEC7  30                 	db	48	;'0'
   874  00FEC8  7E                 	db	126
   875  00FEC9  00                 	db	0
   876  00FECA                     STR_159:
   877  00FECA  1B                 	db	27
   878  00FECB  5B                 	db	91	;'['
   879  00FECC  31                 	db	49	;'1'
   880  00FECD  31                 	db	49	;'1'
   881  00FECE  7E                 	db	126
   882  00FECF  00                 	db	0
   883  00FED0                     STR_168:
   884  00FED0  1B                 	db	27
   885  00FED1  5B                 	db	91	;'['
   886  00FED2  32                 	db	50	;'2'
   887  00FED3  31                 	db	49	;'1'
   888  00FED4  7E                 	db	126
   889  00FED5  00                 	db	0
   890  00FED6                     STR_160:
   891  00FED6  1B                 	db	27
   892  00FED7  5B                 	db	91	;'['
   893  00FED8  31                 	db	49	;'1'
   894  00FED9  32                 	db	50	;'2'
   895  00FEDA  7E                 	db	126
   896  00FEDB  00                 	db	0
   897  00FEDC                     STR_169:
   898  00FEDC  1B                 	db	27
   899  00FEDD  5B                 	db	91	;'['
   900  00FEDE  32                 	db	50	;'2'
   901  00FEDF  32                 	db	50	;'2'
   902  00FEE0  7E                 	db	126
   903  00FEE1  00                 	db	0
   904  00FEE2                     STR_161:
   905  00FEE2  1B                 	db	27
   906  00FEE3  5B                 	db	91	;'['
   907  00FEE4  31                 	db	49	;'1'
   908  00FEE5  33                 	db	51	;'3'
   909  00FEE6  7E                 	db	126
   910  00FEE7  00                 	db	0
   911  00FEE8                     STR_170:
   912  00FEE8  1B                 	db	27
   913  00FEE9  5B                 	db	91	;'['
   914  00FEEA  32                 	db	50	;'2'
   915  00FEEB  33                 	db	51	;'3'
   916  00FEEC  7E                 	db	126
   917  00FEED  00                 	db	0
   918  00FEEE                     STR_162:
   919  00FEEE  1B                 	db	27
   920  00FEEF  5B                 	db	91	;'['
   921  00FEF0  31                 	db	49	;'1'
   922  00FEF1  34                 	db	52	;'4'
   923  00FEF2  7E                 	db	126
   924  00FEF3  00                 	db	0
   925  00FEF4                     STR_182:
   926  00FEF4  1B                 	db	27
   927  00FEF5  5B                 	db	91	;'['
   928  00FEF6  32                 	db	50	;'2'
   929  00FEF7  34                 	db	52	;'4'
   930  00FEF8  7E                 	db	126
   931  00FEF9  00                 	db	0
   932  00FEFA                     STR_163:
   933  00FEFA  1B                 	db	27
   934  00FEFB  5B                 	db	91	;'['
   935  00FEFC  31                 	db	49	;'1'
   936  00FEFD  35                 	db	53	;'5'
   937  00FEFE  7E                 	db	126
   938  00FEFF  00                 	db	0
   939  00FF00                     STR_164:
   940  00FF00  1B                 	db	27
   941  00FF01  5B                 	db	91	;'['
   942  00FF02  31                 	db	49	;'1'
   943  00FF03  37                 	db	55	;'7'
   944  00FF04  7E                 	db	126
   945  00FF05  00                 	db	0
   946  00FF06                     STR_165:
   947  00FF06  1B                 	db	27
   948  00FF07  5B                 	db	91	;'['
   949  00FF08  31                 	db	49	;'1'
   950  00FF09  38                 	db	56	;'8'
   951  00FF0A  7E                 	db	126
   952  00FF0B  00                 	db	0
   953  00FF0C                     STR_166:
   954  00FF0C  1B                 	db	27
   955  00FF0D  5B                 	db	91	;'['
   956  00FF0E  31                 	db	49	;'1'
   957  00FF0F  39                 	db	57	;'9'
   958  00FF10  7E                 	db	126
   959  00FF11  00                 	db	0
   960  00FF12                     STR_52:
   961  00FF12  25                 	db	37
   962  00FF13  30                 	db	48	;'0'
   963  00FF14  34                 	db	52	;'4'
   964  00FF15  64                 	db	100	;'d'
   965  00FF16  20                 	db	32
   966  00FF17  00                 	db	0
   967  00FF18                     STR_90:
   968  00FF18  0D                 	db	13
   969  00FF19  0A                 	db	10
   970  00FF1A  25                 	db	37
   971  00FF1B  30                 	db	48	;'0'
   972  00FF1C  78                 	db	120	;'x'
   973  00FF1D  00                 	db	0
   974  00FF1E                     STR_189:
   975  00FF1E  1B                 	db	27
   976  00FF1F  5B                 	db	91	;'['
   977  00FF20  31                 	db	49	;'1'
   978  00FF21  7E                 	db	126
   979  00FF22  00                 	db	0
   980  00FF23                     STR_131:
   981  00FF23  1B                 	db	27
   982  00FF24  5B                 	db	91	;'['
   983  00FF25  32                 	db	50	;'2'
   984  00FF26  7E                 	db	126
   985  00FF27  00                 	db	0
   986  00FF28                     STR_190:
   987  00FF28  1B                 	db	27
   988  00FF29  5B                 	db	91	;'['
   989  00FF2A  34                 	db	52	;'4'
   990  00FF2B  7E                 	db	126
   991  00FF2C  00                 	db	0
   992  00FF2D                     STR_191:
   993  00FF2D  1B                 	db	27
   994  00FF2E  5B                 	db	91	;'['
   995  00FF2F  35                 	db	53	;'5'
   996  00FF30  7E                 	db	126
   997  00FF31  00                 	db	0
   998  00FF32                     STR_192:
   999  00FF32  1B                 	db	27
  1000  00FF33  5B                 	db	91	;'['
  1001  00FF34  36                 	db	54	;'6'
  1002  00FF35  7E                 	db	126
  1003  00FF36  00                 	db	0
  1004  00FF37                     STR_47:
  1005  00FF37  25                 	db	37
  1006  00FF38  64                 	db	100	;'d'
  1007  00FF39  2C                 	db	44
  1008  00FF3A  20                 	db	32
  1009  00FF3B  00                 	db	0
  1010  00FF3C                     STR_42:
  1011  00FF3C  25                 	db	37
  1012  00FF3D  6C                 	db	108	;'l'
  1013  00FF3E  64                 	db	100	;'d'
  1014  00FF3F  20                 	db	32
  1015  00FF40  00                 	db	0
  1016  00FF41                     STR_40:
  1017  00FF41  0D                 	db	13
  1018  00FF42  0A                 	db	10
  1019  00FF43  25                 	db	37
  1020  00FF44  64                 	db	100	;'d'
  1021  00FF45  00                 	db	0
  1022  00FF46                     STR_31:
  1023  00FF46  68                 	db	104	;'h'
  1024  00FF47  65                 	db	101	;'e'
  1025  00FF48  6C                 	db	108	;'l'
  1026  00FF49  70                 	db	112	;'p'
  1027  00FF4A  00                 	db	0
  1028  00FF4B                     STR_195:
  1029  00FF4B  49                 	db	73	;'I'
  1030  00FF4C  4E                 	db	78	;'N'
  1031  00FF4D  46                 	db	70	;'F'
  1032  00FF4E  00                 	db	0
  1033  00FF4F                     STR_199:
  1034  00FF4F  4E                 	db	78	;'N'
  1035  00FF50  41                 	db	65	;'A'
  1036  00FF51  4E                 	db	78	;'N'
  1037  00FF52  00                 	db	0
  1038  00FF53                     STR_196:
  1039  00FF53  69                 	db	105	;'i'
  1040  00FF54  6E                 	db	110	;'n'
  1041  00FF55  66                 	db	102	;'f'
  1042  00FF56  00                 	db	0
  1043  00FF57                     STR_200:
  1044  00FF57  6E                 	db	110	;'n'
  1045  00FF58  61                 	db	97	;'a'
  1046  00FF59  6E                 	db	110	;'n'
  1047  00FF5A  00                 	db	0
  1048  00FF5B                     STR_183:
  1049  00FF5B  1B                 	db	27
  1050  00FF5C  5B                 	db	91	;'['
  1051  00FF5D  41                 	db	65	;'A'
  1052  00FF5E  00                 	db	0
  1053  00FF5F                     STR_184:
  1054  00FF5F  1B                 	db	27
  1055  00FF60  5B                 	db	91	;'['
  1056  00FF61  42                 	db	66	;'B'
  1057  00FF62  00                 	db	0
  1058  00FF63                     STR_185:
  1059  00FF63  1B                 	db	27
  1060  00FF64  5B                 	db	91	;'['
  1061  00FF65  43                 	db	67	;'C'
  1062  00FF66  00                 	db	0
  1063  00FF67                     STR_186:
  1064  00FF67  1B                 	db	27
  1065  00FF68  5B                 	db	91	;'['
  1066  00FF69  44                 	db	68	;'D'
  1067  00FF6A  00                 	db	0
  1068  00FF6B                     STR_188:
  1069  00FF6B  1B                 	db	27
  1070  00FF6C  4F                 	db	79	;'O'
  1071  00FF6D  46                 	db	70	;'F'
  1072  00FF6E  00                 	db	0
  1073  00FF6F                     STR_187:
  1074  00FF6F  1B                 	db	27
  1075  00FF70  4F                 	db	79	;'O'
  1076  00FF71  48                 	db	72	;'H'
  1077  00FF72  00                 	db	0
  1078  00FF73                     STR_171:
  1079  00FF73  1B                 	db	27
  1080  00FF74  4F                 	db	79	;'O'
  1081  00FF75  50                 	db	80	;'P'
  1082  00FF76  00                 	db	0
  1083  00FF77                     STR_172:
  1084  00FF77  1B                 	db	27
  1085  00FF78  4F                 	db	79	;'O'
  1086  00FF79  51                 	db	81	;'Q'
  1087  00FF7A  00                 	db	0
  1088  00FF7B                     STR_173:
  1089  00FF7B  1B                 	db	27
  1090  00FF7C  4F                 	db	79	;'O'
  1091  00FF7D  52                 	db	82	;'R'
  1092  00FF7E  00                 	db	0
  1093  00FF7F                     STR_174:
  1094  00FF7F  1B                 	db	27
  1095  00FF80  4F                 	db	79	;'O'
  1096  00FF81  53                 	db	83	;'S'
  1097  00FF82  00                 	db	0
  1098  00FF83  25                 	db	37
  1099  00FF84  64                 	db	100	;'d'
  1100  00FF85  20                 	db	32
  1101  00FF86  00                 	db	0
  1102  00FF87                     STR_49:
  1103  00FF87  5D                 	db	93	;']'
  1104  00FF88  0D                 	db	13
  1105  00FF89  0A                 	db	10
  1106  00FF8A  00                 	db	0
  1107  00FF8B                     STR_44:
  1108  00FF8B  7B                 	db	123
  1109  00FF8C  0D                 	db	13
  1110  00FF8D  0A                 	db	10
  1111  00FF8E  00                 	db	0
  1112  00FF8F                     STR_50:
  1113  00FF8F  7D                 	db	125
  1114  00FF90  0D                 	db	13
  1115  00FF91  0A                 	db	10
  1116  00FF92  00                 	db	0
  1117  00FF93                     STR_5:
  1118  00FF93  63                 	db	99	;'c'
  1119  00FF94  6C                 	db	108	;'l'
  1120  00FF95  73                 	db	115	;'s'
  1121  00FF96  00                 	db	0
  1122  00FF97                     STR_221:
  1123  00FF97  6C                 	db	108	;'l'
  1124  00FF98  58                 	db	88	;'X'
  1125  00FF99  00                 	db	0
  1126  00FF9A                     STR_212:
  1127  00FF9A  6C                 	db	108	;'l'
  1128  00FF9B  66                 	db	102	;'f'
  1129  00FF9C  00                 	db	0
  1130  00FF9D                     STR_207:
  1131  00FF9D  6C                 	db	108	;'l'
  1132  00FF9E  69                 	db	105	;'i'
  1133  00FF9F  00                 	db	0
  1134  00FFA0                     STR_217:
  1135  00FFA0  6C                 	db	108	;'l'
  1136  00FFA1  78                 	db	120	;'x'
  1137  00FFA2  00                 	db	0
  1138  00FFA3                     STR_13:
  1139  00FFA3  6B                 	db	107	;'k'
  1140  00FFA4  6E                 	db	110	;'n'
  1141  00FFA5  00                 	db	0
  1142  00FFA6                     STR_12:
  1143  00FFA6  6B                 	db	107	;'k'
  1144  00FFA7  70                 	db	112	;'p'
  1145  00FFA8  00                 	db	0
  1146  00FFA9                     STR_133:
  1147  00FFA9  01                 	db	1
  1148  00FFAA  00                 	db	0
  1149  00FFAB                     STR_134:
  1150  00FFAB  02                 	db	2
  1151  00FFAC  00                 	db	0
  1152  00FFAD                     STR_135:
  1153  00FFAD  03                 	db	3
  1154  00FFAE  00                 	db	0
  1155  00FFAF                     STR_136:
  1156  00FFAF  04                 	db	4
  1157  00FFB0  00                 	db	0
  1158  00FFB1                     STR_137:
  1159  00FFB1  05                 	db	5
  1160  00FFB2  00                 	db	0
  1161  00FFB3                     STR_138:
  1162  00FFB3  06                 	db	6
  1163  00FFB4  00                 	db	0
  1164  00FFB5                     STR_139:
  1165  00FFB5  07                 	db	7
  1166  00FFB6  00                 	db	0
  1167  00FFB7                     STR_128:
  1168  00FFB7  08                 	db	8
  1169  00FFB8  00                 	db	0
  1170  00FFB9                     STR_130:
  1171  00FFB9  09                 	db	9
  1172  00FFBA  00                 	db	0
  1173  00FFBB                     STR_143:
  1174  00FFBB  0B                 	db	11
  1175  00FFBC  00                 	db	0
  1176  00FFBD                     STR_144:
  1177  00FFBD  0C                 	db	12
  1178  00FFBE  00                 	db	0
  1179  00FFBF                     STR_132:
  1180  00FFBF  0D                 	db	13
  1181  00FFC0  00                 	db	0
  1182  00FFC1                     STR_146:
  1183  00FFC1  0E                 	db	14
  1184  00FFC2  00                 	db	0
  1185  00FFC3                     STR_147:
  1186  00FFC3  0F                 	db	15
  1187  00FFC4  00                 	db	0
  1188  00FFC5                     STR_148:
  1189  00FFC5  10                 	db	16
  1190  00FFC6  00                 	db	0
  1191  00FFC7                     STR_149:
  1192  00FFC7  11                 	db	17
  1193  00FFC8  00                 	db	0
  1194  00FFC9                     STR_150:
  1195  00FFC9  12                 	db	18
  1196  00FFCA  00                 	db	0
  1197  00FFCB                     STR_151:
  1198  00FFCB  13                 	db	19
  1199  00FFCC  00                 	db	0
  1200  00FFCD                     STR_152:
  1201  00FFCD  14                 	db	20
  1202  00FFCE  00                 	db	0
  1203  00FFCF                     STR_153:
  1204  00FFCF  15                 	db	21
  1205  00FFD0  00                 	db	0
  1206  00FFD1                     STR_154:
  1207  00FFD1  16                 	db	22
  1208  00FFD2  00                 	db	0
  1209  00FFD3                     STR_155:
  1210  00FFD3  17                 	db	23
  1211  00FFD4  00                 	db	0
  1212  00FFD5                     STR_156:
  1213  00FFD5  18                 	db	24
  1214  00FFD6  00                 	db	0
  1215  00FFD7                     STR_157:
  1216  00FFD7  19                 	db	25
  1217  00FFD8  00                 	db	0
  1218  00FFD9                     STR_158:
  1219  00FFD9  1A                 	db	26
  1220  00FFDA  00                 	db	0
  1221  00FFDB                     STR_129:
  1222  00FFDB  7F                 	db	127
  1223  00FFDC  00                 	db	0
  1224  00FFDD                     STR_39:
  1225  00FFDD  3A                 	db	58	;':'
  1226  00FFDE  00                 	db	0
  1227  00FFDF                     STR_30:
  1228  00FFDF  3F                 	db	63	;'?'
  1229  00FFE0  00                 	db	0
  1230  00FFE1                     STR_20:
  1231  00FFE1  45                 	db	69	;'E'
  1232  00FFE2  00                 	db	0
  1233  00FFE3                     STR_10:
  1234  00FFE3  47                 	db	71	;'G'
  1235  00FFE4  00                 	db	0
  1236  00FFE5                     STR_28:
  1237  00FFE5  49                 	db	73	;'I'
  1238  00FFE6  00                 	db	0
  1239  00FFE7                     STR_1:
  1240  00FFE7  4C                 	db	76	;'L'
  1241  00FFE8  00                 	db	0
  1242  00FFE9                     STR_16:
  1243  00FFE9  4D                 	db	77	;'M'
  1244  00FFEA  00                 	db	0
  1245  00FFEB                     STR_18:
  1246  00FFEB  54                 	db	84	;'T'
  1247  00FFEC  00                 	db	0
  1248  00FFED                     STR_26:
  1249  00FFED  56                 	db	86	;'V'
  1250  00FFEE  00                 	db	0
  1251  00FFEF                     STR_9:
  1252  00FFEF  62                 	db	98	;'b'
  1253  00FFF0  00                 	db	0
  1254  00FFF1                     STR_4:
  1255  00FFF1  63                 	db	99	;'c'
  1256  00FFF2  00                 	db	0
  1257  00FFF3                     STR_21:
  1258  00FFF3  65                 	db	101	;'e'
  1259  00FFF4  00                 	db	0
  1260  00FFF5                     STR_11:
  1261  00FFF5  67                 	db	103	;'g'
  1262  00FFF6  00                 	db	0
  1263  00FFF7                     STR_2:
  1264  00FFF7  6C                 	db	108	;'l'
  1265  00FFF8  00                 	db	0
  1266  00FFF9                     STR_17:
  1267  00FFF9  6D                 	db	109	;'m'
  1268  00FFFA  00                 	db	0
  1269  00FFFB                     STR_19:
  1270  00FFFB  74                 	db	116	;'t'
  1271  00FFFC  00                 	db	0
  1272  00FFFD                     STR_27:
  1273  00FFFD  76                 	db	118	;'v'
  1274  00FFFE  00                 	db	0
  1275  0000                     
  1276                           ; #config settings
  1277  00FFFF  00                 	db	0	; dummy byte at the end
  1278  0000                     
  1279                           	psect	nvBANK2
  1280  0002C0                     __pnvBANK2:
  1281                           	opt callstack 0
  1282  0002C0                     _gPtrTxRead:
  1283                           	opt callstack 0
  1284  0002C0                     	ds	2
  1285  0002C2                     _gPtrTxWrite:
  1286                           	opt callstack 0
  1287  0002C2                     	ds	2
  1288  0000                     _CCPTMRS0	set	3913
  1289  0000                     _ANSELC	set	3898
  1290  0000                     _ANSELB	set	3897
  1291  0000                     _ANSELA	set	3896
  1292  0000                     _RCREG1	set	4014
  1293  0000                     _TXREG1	set	4013
  1294  0000                     _SPBRG1	set	4015
  1295  0000                     _BAUDCON1	set	4024
  1296  0000                     _TXSTA1	set	4012
  1297  0000                     _RCSTA1	set	4011
  1298  0000                     _PORTAbits	set	3968
  1299  0000                     _TMR0L	set	4054
  1300  0000                     _TMR0H	set	4055
  1301  0000                     _PORTB	set	3969
  1302  0000                     _SSPADD	set	4040
  1303  0000                     _SSPSTAT	set	4039
  1304  0000                     _SSPCON1	set	4038
  1305  0000                     _T0CON	set	4053
  1306  0000                     _TMR2	set	4028
  1307  0000                     _CCP2CON	set	3942
  1308  0000                     _CCP1CON	set	4029
  1309  0000                     _T2CON	set	4026
  1310  0000                     _PSTR2CON	set	3939
  1311  0000                     _PSTR1CON	set	4025
  1312  0000                     _TRISC	set	3988
  1313  0000                     _TRISB	set	3987
  1314  0000                     _TRISA	set	3986
  1315  0000                     _OSCCON	set	4051
  1316  0000                     _SSPBUF	set	4041
  1317  0000                     _SSPCON2bits	set	4037
  1318  0000                     _EECON2	set	4007
  1319  0000                     _INTCONbits	set	4082
  1320  0000                     _EEDATA	set	4008
  1321  0000                     _EECON1bits	set	4006
  1322  0000                     _EECON1	set	4006
  1323  0000                     _EEADR	set	4009
  1324  0000                     _PR2	set	4027
  1325  0000                     _CCP1CONbits	set	4029
  1326  0000                     _CCPR1L	set	4030
  1327  0000                     _CCP2CONbits	set	3942
  1328  0000                     _CCPR2L	set	3943
  1329  0000                     _RC1IF	set	31989
  1330  0000                     _TX2IF	set	32036
  1331  0000                     _TX1IP	set	31996
  1332  0000                     _TMR0IF	set	32658
  1333  0000                     _TX1IE	set	31980
  1334  0000                     _TX1IF	set	31988
  1335  0000                     _INT2IF	set	32641
  1336  0000                     _INT1IF	set	32640
  1337  0000                     _GIEL	set	32662
  1338  0000                     _GIE	set	32663
  1339  0000                     _IPEN	set	32391
  1340  0000                     _INT2IE	set	32644
  1341  0000                     _INT1IE	set	32643
  1342  0000                     _INT2IP	set	32647
  1343  0000                     _INT1IP	set	32646
  1344  0000                     _INTEDG2	set	32652
  1345  0000                     _INTEDG1	set	32653
  1346  0000                     _INTEDG0	set	32654
  1347  0000                     _TMR0IP	set	32650
  1348  0000                     _TMR0IE	set	32661
  1349  0000                     _TMR2ON	set	32210
  1350  0000                     _SSPIF	set	31987
  1351  0000                     _GIEH	set	32663
  1352  0000                     _LATA0	set	31816
  1353  0000                     _LATA5	set	31821
  1354  0000                     _LATA4	set	31820
  1355  0000                     _LATA3	set	31819
  1356  0000                     _LATA2	set	31818
  1357                           
  1358                           	psect	cinit
  1359  006E66                     __pcinit:
  1360                           	opt callstack 0
  1361  006E66                     start_initialization:
  1362                           	opt callstack 0
  1363  006E66                     __initialization:
  1364                           	opt callstack 0
  1365                           
  1366                           ; Initialize objects allocated to BANK3 (124 bytes)
  1367                           ; load TBLPTR registers with __pidataBANK3
  1368  006E66  0E74               	movlw	low __pidataBANK3
  1369  006E68  6EF6               	movwf	tblptrl,c
  1370  006E6A  0E6F               	movlw	high __pidataBANK3
  1371  006E6C  6EF7               	movwf	tblptrh,c
  1372  006E6E  0E00               	movlw	low (__pidataBANK3 shr (0+16))
  1373  006E70  6EF8               	movwf	tblptru,c
  1374  006E72  EE03  F000         	lfsr	0,__pdataBANK3
  1375  006E76  EE10 F07C          	lfsr	1,124
  1376  006E7A                     copy_data0:
  1377  006E7A  0009               	tblrd		*+
  1378  006E7C  CFF5 FFEE          	movff	tablat,postinc0
  1379  006E80  50E5               	movf	postdec1,w,c
  1380  006E82  50E1               	movf	fsr1l,w,c
  1381  006E84  E1FA               	bnz	copy_data0
  1382                           
  1383                           ; Initialize objects allocated to BANK2 (2 bytes)
  1384                           ; load TBLPTR registers with __pidataBANK2
  1385  006E86  0E00               	movlw	low __pidataBANK2
  1386  006E88  6EF6               	movwf	tblptrl,c
  1387  006E8A  0E7C               	movlw	high __pidataBANK2
  1388  006E8C  6EF7               	movwf	tblptrh,c
  1389  006E8E  0E00               	movlw	low (__pidataBANK2 shr (0+16))
  1390  006E90  6EF8               	movwf	tblptru,c
  1391  006E92  0009               	tblrd		*+	;fetch initializer
  1392  006E94  CFF5 F2C4          	movff	tablat,__pdataBANK2
  1393  006E98  0009               	tblrd		*+	;fetch initializer
  1394  006E9A  CFF5 F2C5          	movff	tablat,__pdataBANK2+1
  1395                           
  1396                           ; Initialize objects allocated to COMRAM (1 bytes)
  1397                           ; load TBLPTR registers with __pidataCOMRAM
  1398  006E9E  0E02               	movlw	low __pidataCOMRAM
  1399  006EA0  6EF6               	movwf	tblptrl,c
  1400  006EA2  0E7C               	movlw	high __pidataCOMRAM
  1401  006EA4  6EF7               	movwf	tblptrh,c
  1402  006EA6  0E00               	movlw	low (__pidataCOMRAM shr (0+16))
  1403  006EA8  6EF8               	movwf	tblptru,c
  1404  006EAA  0009               	tblrd		*+	;fetch initializer
  1405  006EAC  CFF5 F043          	movff	tablat,__pdataCOMRAM
  1406                           
  1407                           ; Clear objects allocated to BANK3 (112 bytes)
  1408  006EB0  EE03  F07C         	lfsr	0,__pbssBANK3
  1409  006EB4  0E70               	movlw	112
  1410  006EB6                     clear_0:
  1411  006EB6  6AEE               	clrf	postinc0,c
  1412  006EB8  06E8               	decf	wreg,f,c
  1413  006EBA  E1FD               	bnz	clear_0
  1414                           
  1415                           ; Clear objects allocated to BANK2 (192 bytes)
  1416  006EBC  EE02  F000         	lfsr	0,__pbssBANK2
  1417  006EC0  0EC0               	movlw	192
  1418  006EC2                     clear_1:
  1419  006EC2  6AEE               	clrf	postinc0,c
  1420  006EC4  06E8               	decf	wreg,f,c
  1421  006EC6  E1FD               	bnz	clear_1
  1422                           
  1423                           ; Clear objects allocated to BANK1 (23 bytes)
  1424  006EC8  EE01  F0AD         	lfsr	0,__pbssBANK1
  1425  006ECC  0E17               	movlw	23
  1426  006ECE                     clear_2:
  1427  006ECE  6AEE               	clrf	postinc0,c
  1428  006ED0  06E8               	decf	wreg,f,c
  1429  006ED2  E1FD               	bnz	clear_2
  1430                           
  1431                           ; Clear objects allocated to BANK0 (1 bytes)
  1432  006ED4  0100               	movlb	0
  1433  006ED6  6BFE               	clrf	__pbssBANK0& (0+255),b
  1434                           
  1435                           ; Clear objects allocated to COMRAM (27 bytes)
  1436  006ED8  EE00  F028         	lfsr	0,__pbssCOMRAM
  1437  006EDC  0E1B               	movlw	27
  1438  006EDE                     clear_3:
  1439  006EDE  6AEE               	clrf	postinc0,c
  1440  006EE0  06E8               	decf	wreg,f,c
  1441  006EE2  E1FD               	bnz	clear_3
  1442  006EE4                     end_of_initialization:
  1443                           	opt callstack 0
  1444  006EE4                     __end_of__initialization:
  1445                           	opt callstack 0
  1446  006EE4  9044               	bcf	int$flags,0,c	;clear compiler interrupt flag (level 1)
  1447  006EE6  9244               	bcf	int$flags,1,c	;clear compiler interrupt flag (level 2)
  1448  006EE8  0100               	movlb	0
  1449  006EEA  EFCC  F019         	goto	_main	;jump to C main() function
  1450                           
  1451                           	psect	bssCOMRAM
  1452  000028                     __pbssCOMRAM:
  1453                           	opt callstack 0
  1454  000028                     _gTimer1ms:
  1455                           	opt callstack 0
  1456  000028                     	ds	4
  1457  00002C                     _width:
  1458                           	opt callstack 0
  1459  00002C                     	ds	2
  1460  00002E                     _prec:
  1461                           	opt callstack 0
  1462  00002E                     	ds	2
  1463  000030                     _flags:
  1464                           	opt callstack 0
  1465  000030                     	ds	2
  1466  000032                     _gTxNumBytes:
  1467                           	opt callstack 0
  1468  000032                     	ds	1
  1469  000033                     _gFlg100ms:
  1470                           	opt callstack 0
  1471  000033                     	ds	1
  1472  000034                     _gPort_copy:
  1473                           	opt callstack 0
  1474  000034                     	ds	1
  1475  000035                     _gFlgGate:
  1476                           	opt callstack 0
  1477  000035                     	ds	1
  1478  000036                     _gD_gain:
  1479                           	opt callstack 0
  1480  000036                     	ds	8
  1481  00003E                     _gTzPeriod:
  1482                           	opt callstack 0
  1483  00003E                     	ds	2
  1484  000040                     _gFlgTzEnable:
  1485                           	opt callstack 0
  1486  000040                     	ds	2
  1487  000042                     _gTxBuffer:
  1488                           	opt callstack 0
  1489  000042                     	ds	1
  1490                           
  1491                           	psect	dataCOMRAM
  1492  000043                     __pdataCOMRAM:
  1493                           	opt callstack 0
  1494  000043                     BlinkAlive@aliveCount:
  1495                           	opt callstack 0
  1496  000043                     	ds	1
  1497                           
  1498                           	psect	bssBANK0
  1499  0000FE                     __pbssBANK0:
  1500                           	opt callstack 0
  1501  0000FE                     _gFlgControllingPosition:
  1502                           	opt callstack 0
  1503  0000FE                     	ds	1
  1504                           
  1505                           	psect	bssBANK1
  1506  0001AD                     __pbssBANK1:
  1507                           	opt callstack 0
  1508  0001AD                     _nout:
  1509                           	opt callstack 0
  1510  0001AD                     	ds	2
  1511  0001AF                     _gFlgDebug:
  1512                           	opt callstack 0
  1513  0001AF                     	ds	1
  1514  0001B0                     _gFlgEcho:
  1515                           	opt callstack 0
  1516  0001B0                     	ds	1
  1517  0001B1                     _gFlgControlLoop:
  1518                           	opt callstack 0
  1519  0001B1                     	ds	1
  1520  0001B2                     _gI_gain:
  1521                           	opt callstack 0
  1522  0001B2                     	ds	8
  1523  0001BA                     _gP_gain:
  1524                           	opt callstack 0
  1525  0001BA                     	ds	8
  1526  0001C2                     _gTzStep:
  1527                           	opt callstack 0
  1528  0001C2                     	ds	2
  1529                           
  1530                           	psect	bssBANK2
  1531  000200                     __pbssBANK2:
  1532                           	opt callstack 0
  1533  000200                     _gLastCountEnc:
  1534                           	opt callstack 0
  1535  000200                     	ds	16
  1536  000210                     _gError:
  1537                           	opt callstack 0
  1538  000210                     	ds	16
  1539  000220                     _gTickTarget:
  1540                           	opt callstack 0
  1541  000220                     	ds	16
  1542  000230                     _gLastError:
  1543                           	opt callstack 0
  1544  000230                     	ds	16
  1545  000240                     _gErrorIntegral:
  1546                           	opt callstack 0
  1547  000240                     	ds	16
  1548  000250                     _gCountEnc:
  1549                           	opt callstack 0
  1550  000250                     	ds	16
  1551  000260                     _gGateTime:
  1552                           	opt callstack 0
  1553  000260                     	ds	16
  1554  000270                     _Backward:
  1555                           	opt callstack 0
  1556  000270                     	ds	8
  1557  000278                     _Forward:
  1558                           	opt callstack 0
  1559  000278                     	ds	8
  1560  000280                     _Brake:
  1561                           	opt callstack 0
  1562  000280                     	ds	8
  1563  000288                     _PWM:
  1564                           	opt callstack 0
  1565  000288                     	ds	8
  1566  000290                     _gDeltaTarget:
  1567                           	opt callstack 0
  1568  000290                     	ds	8
  1569  000298                     _gCurrentTarget:
  1570                           	opt callstack 0
  1571  000298                     	ds	8
  1572  0002A0                     _gDesiredTarget:
  1573                           	opt callstack 0
  1574  0002A0                     	ds	8
  1575  0002A8                     floorf@F524:
  1576                           	opt callstack 0
  1577  0002A8                     	ds	4
  1578  0002AC                     ___fpclassifyf@F463:
  1579                           	opt callstack 0
  1580  0002AC                     	ds	4
  1581  0002B0                     _gDiffCount:
  1582                           	opt callstack 0
  1583  0002B0                     	ds	16
  1584                           
  1585                           	psect	dataBANK2
  1586  0002C4                     __pdataBANK2:
  1587                           	opt callstack 0
  1588  0002C4                     _usrobj:
  1589                           	opt callstack 0
  1590  0002C4                     	ds	2
  1591                           
  1592                           	psect	bssBANK3
  1593  00037C                     __pbssBANK3:
  1594                           	opt callstack 0
  1595  00037C                     _gSpeedTick:
  1596                           	opt callstack 0
  1597  00037C                     	ds	16
  1598  00038C                     _gLastCount:
  1599                           	opt callstack 0
  1600  00038C                     	ds	16
  1601  00039C                     _dbuf:
  1602                           	opt callstack 0
  1603  00039C                     	ds	80
  1604                           
  1605                           	psect	dataBANK3
  1606  000300                     __pdataBANK3:
  1607                           	opt callstack 0
  1608  000300                     _table:
  1609                           	opt callstack 0
  1610  000300                     	ds	124
  1611                           
  1612                           	psect	cstackBANK4
  1613  000400                     __pcstackBANK4:
  1614                           	opt callstack 0
  1615  000400                     mscmd_execute@argv0:
  1616                           	opt callstack 0
  1617                           
  1618                           ; 32 bytes @ 0x0
  1619  000400                     	ds	32
  1620  000420                     mscmd_execute@i:
  1621                           	opt callstack 0
  1622                           
  1623                           ; 2 bytes @ 0x20
  1624  000420                     	ds	2
  1625  000422                     mscmd_execute@p:
  1626                           	opt callstack 0
  1627                           
  1628                           ; 2 bytes @ 0x22
  1629  000422                     	ds	2
  1630  000424                     mscmd_execute@argc:
  1631                           	opt callstack 0
  1632                           
  1633                           ; 2 bytes @ 0x24
  1634  000424                     	ds	2
  1635  000426                     mscmd_execute@msopt:
  1636                           	opt callstack 0
  1637                           
  1638                           ; 104 bytes @ 0x26
  1639  000426                     	ds	104
  1640                           
  1641                           	psect	cstackBANK1
  1642  000100                     __pcstackBANK1:
  1643                           	opt callstack 0
  1644  000100                     vfpfcnvrt@done:
  1645                           	opt callstack 0
  1646                           
  1647                           ; 2 bytes @ 0x0
  1648  000100                     	ds	2
  1649  000102                     _vfpfcnvrt$2393:
  1650                           	opt callstack 0
  1651                           
  1652                           ; 2 bytes @ 0x2
  1653  000102                     	ds	2
  1654  000104                     _vfpfcnvrt$2394:
  1655                           	opt callstack 0
  1656                           
  1657                           ; 2 bytes @ 0x4
  1658  000104                     	ds	2
  1659  000106                     _vfpfcnvrt$2404:
  1660                           	opt callstack 0
  1661                           
  1662                           ; 2 bytes @ 0x6
  1663  000106                     	ds	2
  1664  000108                     vfpfcnvrt@ll:
  1665                           	opt callstack 0
  1666                           
  1667                           ; 8 bytes @ 0x8
  1668  000108                     	ds	8
  1669  000110                     vfpfcnvrt@llu:
  1670                           	opt callstack 0
  1671                           
  1672                           ; 8 bytes @ 0x10
  1673  000110                     	ds	8
  1674  000118                     vfpfcnvrt@f:
  1675                           	opt callstack 0
  1676                           
  1677                           ; 4 bytes @ 0x18
  1678  000118                     	ds	4
  1679  00011C                     vfpfcnvrt@ct:
  1680                           	opt callstack 0
  1681                           
  1682                           ; 3 bytes @ 0x1C
  1683  00011C                     	ds	3
  1684  00011F                     vfpfcnvrt@c:
  1685                           	opt callstack 0
  1686                           
  1687                           ; 1 bytes @ 0x1F
  1688  00011F                     	ds	1
  1689  000120                     ?_printf:
  1690                           	opt callstack 0
  1691  000120                     printf@fmt:
  1692                           	opt callstack 0
  1693                           
  1694                           ; 2 bytes @ 0x20
  1695  000120                     	ds	18
  1696  000132                     ?_usrcmd_LED:
  1697                           	opt callstack 0
  1698  000132                     ?_usrcmd_Counter:
  1699                           	opt callstack 0
  1700  000132                     ?_usrcmd_ClearScreen:
  1701                           	opt callstack 0
  1702  000132                     ?_usrcmd_Speed:
  1703                           	opt callstack 0
  1704  000132                     ?_usrcmd_Brake:
  1705                           	opt callstack 0
  1706  000132                     ?_usrcmd_GateTime:
  1707                           	opt callstack 0
  1708  000132                     ?_usrcmd_ConstantP:
  1709                           	opt callstack 0
  1710  000132                     ?_usrcmd_ConstantN:
  1711                           	opt callstack 0
  1712  000132                     ?_usrcmd_Position:
  1713                           	opt callstack 0
  1714  000132                     ?_usrcmd_Mode:
  1715                           	opt callstack 0
  1716  000132                     ?_usrcmd_TA:
  1717                           	opt callstack 0
  1718  000132                     ?_usrcmd_Echo:
  1719                           	opt callstack 0
  1720  000132                     ?_usrcmd_Frequency:
  1721                           	opt callstack 0
  1722  000132                     ?_usrcmd_Debug:
  1723                           	opt callstack 0
  1724  000132                     ?_usrcmd_Version:
  1725                           	opt callstack 0
  1726  000132                     ?_usrcmd_I2C:
  1727                           	opt callstack 0
  1728  000132                     ?_usrcmd_Help:
  1729                           	opt callstack 0
  1730  000132                     usrcmd_LED@msopt:
  1731                           	opt callstack 0
  1732  000132                     usrcmd_Counter@msopt:
  1733                           	opt callstack 0
  1734  000132                     usrcmd_ClearScreen@msopt:
  1735                           	opt callstack 0
  1736  000132                     usrcmd_Speed@msopt:
  1737                           	opt callstack 0
  1738  000132                     usrcmd_Brake@msopt:
  1739                           	opt callstack 0
  1740  000132                     usrcmd_GateTime@msopt:
  1741                           	opt callstack 0
  1742  000132                     usrcmd_ConstantN@msopt:
  1743                           	opt callstack 0
  1744  000132                     usrcmd_ConstantP@msopt:
  1745                           	opt callstack 0
  1746  000132                     usrcmd_Position@msopt:
  1747                           	opt callstack 0
  1748  000132                     usrcmd_Mode@msopt:
  1749                           	opt callstack 0
  1750  000132                     usrcmd_TA@msopt:
  1751                           	opt callstack 0
  1752  000132                     usrcmd_Echo@msopt:
  1753                           	opt callstack 0
  1754  000132                     usrcmd_Frequency@msopt:
  1755                           	opt callstack 0
  1756  000132                     usrcmd_Debug@msopt:
  1757                           	opt callstack 0
  1758  000132                     usrcmd_Version@msopt:
  1759                           	opt callstack 0
  1760  000132                     usrcmd_Help@msopt:
  1761                           	opt callstack 0
  1762                           
  1763                           ; 2 bytes @ 0x32
  1764  000132                     	ds	2
  1765  000134                     usrcmd_Help@usrobj:
  1766                           	opt callstack 0
  1767                           
  1768                           ; 2 bytes @ 0x34
  1769  000134                     	ds	2
  1770  000136                     usrcmd_LED@buf:
  1771                           	opt callstack 0
  1772  000136                     usrcmd_Counter@buf:
  1773                           	opt callstack 0
  1774  000136                     usrcmd_ClearScreen@buf:
  1775                           	opt callstack 0
  1776  000136                     usrcmd_Speed@buf:
  1777                           	opt callstack 0
  1778  000136                     usrcmd_Brake@buf:
  1779                           	opt callstack 0
  1780  000136                     usrcmd_GateTime@buf:
  1781                           	opt callstack 0
  1782  000136                     usrcmd_ConstantN@buf:
  1783                           	opt callstack 0
  1784  000136                     usrcmd_ConstantP@buf:
  1785                           	opt callstack 0
  1786  000136                     usrcmd_Position@buf:
  1787                           	opt callstack 0
  1788  000136                     usrcmd_Mode@buf:
  1789                           	opt callstack 0
  1790  000136                     usrcmd_TA@buf:
  1791                           	opt callstack 0
  1792  000136                     usrcmd_Echo@buf:
  1793                           	opt callstack 0
  1794  000136                     usrcmd_Frequency@buf:
  1795                           	opt callstack 0
  1796  000136                     usrcmd_Debug@buf:
  1797                           	opt callstack 0
  1798  000136                     usrcmd_Version@buf:
  1799                           	opt callstack 0
  1800                           
  1801                           ; 32 bytes @ 0x36
  1802  000136                     	ds	32
  1803  000156                     usrcmd_Mode@mode:
  1804                           	opt callstack 0
  1805  000156                     usrcmd_Debug@debugPos:
  1806                           	opt callstack 0
  1807  000156                     usrcmd_LED@argc:
  1808                           	opt callstack 0
  1809  000156                     usrcmd_ClearScreen@argc:
  1810                           	opt callstack 0
  1811  000156                     usrcmd_Speed@argc:
  1812                           	opt callstack 0
  1813  000156                     usrcmd_Brake@argc:
  1814                           	opt callstack 0
  1815  000156                     usrcmd_ConstantN@argc:
  1816                           	opt callstack 0
  1817  000156                     usrcmd_ConstantP@argc:
  1818                           	opt callstack 0
  1819  000156                     usrcmd_TA@argc:
  1820                           	opt callstack 0
  1821  000156                     usrcmd_Echo@argc:
  1822                           	opt callstack 0
  1823  000156                     usrcmd_Frequency@argc:
  1824                           	opt callstack 0
  1825  000156                     usrcmd_Version@argc:
  1826                           	opt callstack 0
  1827  000156                     usrcmd_GateTime@gateTime:
  1828                           	opt callstack 0
  1829  000156                     usrcmd_Position@target:
  1830                           	opt callstack 0
  1831  000156                     usrcmd_Counter@count:
  1832                           	opt callstack 0
  1833                           
  1834                           ; 16 bytes @ 0x56
  1835  000156                     	ds	1
  1836  000157                     usrcmd_Debug@value:
  1837                           	opt callstack 0
  1838  000157                     usrcmd_Mode@argc:
  1839                           	opt callstack 0
  1840                           
  1841                           ; 2 bytes @ 0x57
  1842  000157                     	ds	1
  1843  000158                     usrcmd_Speed@flgChPos:
  1844                           	opt callstack 0
  1845  000158                     usrcmd_Brake@channel:
  1846                           	opt callstack 0
  1847  000158                     usrcmd_ConstantN@pidvalue:
  1848                           	opt callstack 0
  1849  000158                     usrcmd_ConstantP@pidvalue:
  1850                           	opt callstack 0
  1851  000158                     usrcmd_Debug@argc:
  1852                           	opt callstack 0
  1853                           
  1854                           ; 2 bytes @ 0x58
  1855  000158                     	ds	1
  1856  000159                     usrcmd_Speed@speed:
  1857                           	opt callstack 0
  1858  000159                     usrcmd_Brake@i:
  1859                           	opt callstack 0
  1860  000159                     usrcmd_Mode@i:
  1861                           	opt callstack 0
  1862                           
  1863                           ; 2 bytes @ 0x59
  1864  000159                     	ds	1
  1865  00015A                     usrcmd_Position@channel:
  1866                           	opt callstack 0
  1867  00015A                     usrcmd_Debug@flgDebug:
  1868                           	opt callstack 0
  1869  00015A                     usrcmd_GateTime@argc:
  1870                           	opt callstack 0
  1871                           
  1872                           ; 2 bytes @ 0x5A
  1873  00015A                     	ds	1
  1874  00015B                     usrcmd_Speed@channel:
  1875                           	opt callstack 0
  1876  00015B                     usrcmd_Position@argc:
  1877                           	opt callstack 0
  1878                           
  1879                           ; 2 bytes @ 0x5B
  1880  00015B                     	ds	1
  1881  00015C                     usrcmd_Speed@i:
  1882                           	opt callstack 0
  1883  00015C                     usrcmd_GateTime@i:
  1884                           	opt callstack 0
  1885                           
  1886                           ; 2 bytes @ 0x5C
  1887  00015C                     	ds	1
  1888  00015D                     usrcmd_Position@i:
  1889                           	opt callstack 0
  1890                           
  1891                           ; 2 bytes @ 0x5D
  1892  00015D                     	ds	1
  1893  00015E                     usrcmd_GateTime@channel:
  1894                           	opt callstack 0
  1895                           
  1896                           ; 1 bytes @ 0x5E
  1897  00015E                     	ds	1
  1898  00015F                     usrcmd_GateTime@flgChannel:
  1899                           	opt callstack 0
  1900                           
  1901                           ; 1 bytes @ 0x5F
  1902  00015F                     	ds	7
  1903  000166                     usrcmd_Counter@argc:
  1904                           	opt callstack 0
  1905                           
  1906                           ; 2 bytes @ 0x66
  1907  000166                     	ds	2
  1908  000168                     usrcmd_Counter@i:
  1909                           	opt callstack 0
  1910                           
  1911                           ; 2 bytes @ 0x68
  1912  000168                     	ds	2
  1913  00016A                     mscmd_execute@handle:
  1914                           	opt callstack 0
  1915                           
  1916                           ; 2 bytes @ 0x6A
  1917  00016A                     	ds	2
  1918  00016C                     mscmd_execute@text:
  1919                           	opt callstack 0
  1920                           
  1921                           ; 2 bytes @ 0x6C
  1922  00016C                     	ds	2
  1923  00016E                     mscmd_execute@result:
  1924                           	opt callstack 0
  1925                           
  1926                           ; 2 bytes @ 0x6E
  1927  00016E                     	ds	2
  1928  000170                     ??_mscmd_execute:
  1929                           
  1930                           ; 1 bytes @ 0x70
  1931  000170                     	ds	3
  1932  000173                     main@buf:
  1933                           	opt callstack 0
  1934                           
  1935                           ; 32 bytes @ 0x73
  1936  000173                     	ds	32
  1937  000193                     main@r:
  1938                           	opt callstack 0
  1939                           
  1940                           ; 2 bytes @ 0x93
  1941  000193                     	ds	2
  1942  000195                     main@ms:
  1943                           	opt callstack 0
  1944                           
  1945                           ; 16 bytes @ 0x95
  1946  000195                     	ds	16
  1947  0001A5                     main@c:
  1948                           	opt callstack 0
  1949                           
  1950                           ; 1 bytes @ 0xA5
  1951  0001A5                     	ds	1
  1952  0001A6                     main@mscmd:
  1953                           	opt callstack 0
  1954                           
  1955                           ; 6 bytes @ 0xA6
  1956  0001A6                     	ds	6
  1957  0001AC                     main@i:
  1958                           	opt callstack 0
  1959                           
  1960                           ; 1 bytes @ 0xAC
  1961  0001AC                     	ds	1
  1962                           
  1963                           	psect	cstackBANK0
  1964  000060                     __pcstackBANK0:
  1965                           	opt callstack 0
  1966  000060                     ??_msopt_get_argv:
  1967  000060                     ??_atoi:
  1968  000060                     ?_atol:
  1969                           	opt callstack 0
  1970  000060                     ?___aodiv:
  1971                           	opt callstack 0
  1972  000060                     ?___aomod:
  1973                           	opt callstack 0
  1974  000060                     read_float_from_eeprom@aEadd:
  1975                           	opt callstack 0
  1976  000060                     ___xxtofl@sign:
  1977                           	opt callstack 0
  1978  000060                     microshell_init@handle:
  1979                           	opt callstack 0
  1980  000060                     msopt_init@handle:
  1981                           	opt callstack 0
  1982  000060                     ___fpclassifyf@e:
  1983                           	opt callstack 0
  1984  000060                     atol@s:
  1985                           	opt callstack 0
  1986  000060                     fputs@s:
  1987                           	opt callstack 0
  1988  000060                     _tolower$3012:
  1989                           	opt callstack 0
  1990  000060                     _toupper$3027:
  1991                           	opt callstack 0
  1992  000060                     ___fldiv@rem:
  1993                           	opt callstack 0
  1994  000060                     ___aodiv@dividend:
  1995                           	opt callstack 0
  1996  000060                     ___aomod@dividend:
  1997                           	opt callstack 0
  1998                           
  1999                           ; 8 bytes @ 0x0
  2000  000060                     	ds	1
  2001  000061                     ___xxtofl@exp:
  2002                           	opt callstack 0
  2003  000061                     read_float_from_eeprom@pointer:
  2004                           	opt callstack 0
  2005                           
  2006                           ; 2 bytes @ 0x1
  2007  000061                     	ds	1
  2008  000062                     microshell_init@uart_putc:
  2009                           	opt callstack 0
  2010  000062                     msopt_init@text:
  2011                           	opt callstack 0
  2012  000062                     fputs@fp:
  2013                           	opt callstack 0
  2014  000062                     ___xxtofl@arg:
  2015                           	opt callstack 0
  2016  000062                     ___fpclassifyf@u:
  2017                           	opt callstack 0
  2018                           
  2019                           ; 4 bytes @ 0x2
  2020  000062                     	ds	1
  2021  000063                     read_float_from_eeprom@temp:
  2022                           	opt callstack 0
  2023                           
  2024                           ; 4 bytes @ 0x3
  2025  000063                     	ds	1
  2026  000064                     ??_atol:
  2027  000064                     ??_msopt_init:
  2028  000064                     ___fldiv@sign:
  2029                           	opt callstack 0
  2030  000064                     fputs@c:
  2031                           	opt callstack 0
  2032  000064                     microshell_init@uart_getc:
  2033                           	opt callstack 0
  2034  000064                     atoi@neg:
  2035                           	opt callstack 0
  2036                           
  2037                           ; 2 bytes @ 0x4
  2038  000064                     	ds	1
  2039  000065                     ___fldiv@new_exp:
  2040                           	opt callstack 0
  2041  000065                     fputs@i:
  2042                           	opt callstack 0
  2043                           
  2044                           ; 2 bytes @ 0x5
  2045  000065                     	ds	1
  2046  000066                     ?___flmul:
  2047                           	opt callstack 0
  2048  000066                     microshell_init@action_hook:
  2049                           	opt callstack 0
  2050  000066                     _atoi$2891:
  2051                           	opt callstack 0
  2052  000066                     ___flmul@b:
  2053                           	opt callstack 0
  2054                           
  2055                           ; 4 bytes @ 0x6
  2056  000066                     	ds	1
  2057  000067                     ?_pad:
  2058                           	opt callstack 0
  2059  000067                     read_float_from_eeprom@i:
  2060                           	opt callstack 0
  2061  000067                     msopt_get_argv@src:
  2062                           	opt callstack 0
  2063  000067                     pad@fp:
  2064                           	opt callstack 0
  2065  000067                     ___fldiv@grs:
  2066                           	opt callstack 0
  2067                           
  2068                           ; 4 bytes @ 0x7
  2069  000067                     	ds	1
  2070  000068                     msopt_init@src:
  2071                           	opt callstack 0
  2072  000068                     _atoi$2893:
  2073                           	opt callstack 0
  2074  000068                     ___aodiv@divisor:
  2075                           	opt callstack 0
  2076  000068                     ___aomod@divisor:
  2077                           	opt callstack 0
  2078                           
  2079                           ; 8 bytes @ 0x8
  2080  000068                     	ds	1
  2081  000069                     msopt_get_argv@i:
  2082                           	opt callstack 0
  2083  000069                     pad@buf:
  2084                           	opt callstack 0
  2085  000069                     atol@neg:
  2086                           	opt callstack 0
  2087                           
  2088                           ; 2 bytes @ 0x9
  2089  000069                     	ds	1
  2090  00006A                     _atoi$2892:
  2091                           	opt callstack 0
  2092  00006A                     msopt_init@des:
  2093                           	opt callstack 0
  2094  00006A                     ___flmul@a:
  2095                           	opt callstack 0
  2096                           
  2097                           ; 4 bytes @ 0xA
  2098  00006A                     	ds	1
  2099  00006B                     ___fldiv@bexp:
  2100                           	opt callstack 0
  2101  00006B                     msopt_get_argv@des:
  2102                           	opt callstack 0
  2103  00006B                     pad@p:
  2104                           	opt callstack 0
  2105  00006B                     atoi@n:
  2106                           	opt callstack 0
  2107  00006B                     _atol$2900:
  2108                           	opt callstack 0
  2109                           
  2110                           ; 2 bytes @ 0xB
  2111  00006B                     	ds	1
  2112  00006C                     ___fldiv@aexp:
  2113                           	opt callstack 0
  2114  00006C                     msopt_init@p:
  2115                           	opt callstack 0
  2116                           
  2117                           ; 2 bytes @ 0xC
  2118  00006C                     	ds	1
  2119  00006D                     ?_floorf:
  2120                           	opt callstack 0
  2121  00006D                     pad@i:
  2122                           	opt callstack 0
  2123  00006D                     _atol$2902:
  2124                           	opt callstack 0
  2125  00006D                     floorf@x:
  2126                           	opt callstack 0
  2127                           
  2128                           ; 4 bytes @ 0xD
  2129  00006D                     	ds	1
  2130  00006E                     ___flmul@sign:
  2131                           	opt callstack 0
  2132                           
  2133                           ; 1 bytes @ 0xE
  2134  00006E                     	ds	1
  2135  00006F                     ___flmul@aexp:
  2136                           	opt callstack 0
  2137  00006F                     _atol$2901:
  2138                           	opt callstack 0
  2139  00006F                     pad@w:
  2140                           	opt callstack 0
  2141                           
  2142                           ; 2 bytes @ 0xF
  2143  00006F                     	ds	1
  2144  000070                     ??_TrapezoidalAccel:
  2145  000070                     ___flmul@grs:
  2146                           	opt callstack 0
  2147  000070                     atol@n:
  2148                           	opt callstack 0
  2149                           
  2150                           ; 4 bytes @ 0x10
  2151  000070                     	ds	1
  2152  000071                     ??_floorf:
  2153  000071                     ?_dtoa:
  2154                           	opt callstack 0
  2155  000071                     ?_xtoa:
  2156                           	opt callstack 0
  2157  000071                     dtoa@fp:
  2158                           	opt callstack 0
  2159  000071                     xtoa@fp:
  2160                           	opt callstack 0
  2161                           
  2162                           ; 2 bytes @ 0x11
  2163  000071                     	ds	2
  2164  000073                     dtoa@d:
  2165                           	opt callstack 0
  2166  000073                     xtoa@d:
  2167                           	opt callstack 0
  2168                           
  2169                           ; 8 bytes @ 0x13
  2170  000073                     	ds	1
  2171  000074                     ___flmul@bexp:
  2172                           	opt callstack 0
  2173                           
  2174                           ; 1 bytes @ 0x14
  2175  000074                     	ds	1
  2176  000075                     ___flmul@prod:
  2177                           	opt callstack 0
  2178                           
  2179                           ; 4 bytes @ 0x15
  2180  000075                     	ds	2
  2181  000077                     floorf@m:
  2182                           	opt callstack 0
  2183                           
  2184                           ; 4 bytes @ 0x17
  2185  000077                     	ds	2
  2186  000079                     ___flmul@temp:
  2187                           	opt callstack 0
  2188                           
  2189                           ; 2 bytes @ 0x19
  2190  000079                     	ds	2
  2191  00007B                     ??_dtoa:
  2192  00007B                     ?___fladd:
  2193                           	opt callstack 0
  2194  00007B                     xtoa@x:
  2195                           	opt callstack 0
  2196  00007B                     floorf@e:
  2197                           	opt callstack 0
  2198  00007B                     ___flge@ff1:
  2199                           	opt callstack 0
  2200  00007B                     ___fladd@b:
  2201                           	opt callstack 0
  2202                           
  2203                           ; 4 bytes @ 0x1B
  2204  00007B                     	ds	1
  2205  00007C                     ??_xtoa:
  2206                           
  2207                           ; 1 bytes @ 0x1C
  2208  00007C                     	ds	1
  2209  00007D                     floorf@u:
  2210                           	opt callstack 0
  2211                           
  2212                           ; 4 bytes @ 0x1D
  2213  00007D                     	ds	2
  2214  00007F                     ___flge@ff2:
  2215                           	opt callstack 0
  2216  00007F                     ___fladd@a:
  2217                           	opt callstack 0
  2218                           
  2219                           ; 4 bytes @ 0x1F
  2220  00007F                     	ds	4
  2221  000083                     ??___fladd:
  2222  000083                     ??___flge:
  2223  000083                     _dtoa$2333:
  2224                           	opt callstack 0
  2225                           
  2226                           ; 2 bytes @ 0x23
  2227  000083                     	ds	1
  2228  000084                     _xtoa$2378:
  2229                           	opt callstack 0
  2230                           
  2231                           ; 2 bytes @ 0x24
  2232  000084                     	ds	1
  2233  000085                     dtoa@p:
  2234                           	opt callstack 0
  2235                           
  2236                           ; 2 bytes @ 0x25
  2237  000085                     	ds	1
  2238  000086                     _xtoa$2379:
  2239                           	opt callstack 0
  2240                           
  2241                           ; 2 bytes @ 0x26
  2242  000086                     	ds	1
  2243  000087                     ___fladd@signs:
  2244                           	opt callstack 0
  2245  000087                     dtoa@w:
  2246                           	opt callstack 0
  2247                           
  2248                           ; 2 bytes @ 0x27
  2249  000087                     	ds	1
  2250  000088                     ___fladd@aexp:
  2251                           	opt callstack 0
  2252  000088                     xtoa@p:
  2253                           	opt callstack 0
  2254                           
  2255                           ; 2 bytes @ 0x28
  2256  000088                     	ds	1
  2257  000089                     ___fladd@bexp:
  2258                           	opt callstack 0
  2259  000089                     dtoa@s:
  2260                           	opt callstack 0
  2261                           
  2262                           ; 2 bytes @ 0x29
  2263  000089                     	ds	1
  2264  00008A                     ___fladd@grs:
  2265                           	opt callstack 0
  2266  00008A                     xtoa@w:
  2267                           	opt callstack 0
  2268                           
  2269                           ; 2 bytes @ 0x2A
  2270  00008A                     	ds	1
  2271  00008B                     ?___flsub:
  2272                           	opt callstack 0
  2273  00008B                     ?___fltol:
  2274                           	opt callstack 0
  2275  00008B                     ___fltol@f1:
  2276                           	opt callstack 0
  2277  00008B                     ___flsub@b:
  2278                           	opt callstack 0
  2279  00008B                     dtoa@n:
  2280                           	opt callstack 0
  2281                           
  2282                           ; 8 bytes @ 0x2B
  2283  00008B                     	ds	1
  2284  00008C                     xtoa@n:
  2285                           	opt callstack 0
  2286                           
  2287                           ; 8 bytes @ 0x2C
  2288  00008C                     	ds	3
  2289  00008F                     ??___fltol:
  2290  00008F                     ___flsub@a:
  2291                           	opt callstack 0
  2292                           
  2293                           ; 4 bytes @ 0x2F
  2294  00008F                     	ds	4
  2295  000093                     ___fltol@sign1:
  2296                           	opt callstack 0
  2297  000093                     dtoa@i:
  2298                           	opt callstack 0
  2299                           
  2300                           ; 2 bytes @ 0x33
  2301  000093                     	ds	1
  2302  000094                     ___fltol@exp1:
  2303                           	opt callstack 0
  2304  000094                     xtoa@i:
  2305                           	opt callstack 0
  2306                           
  2307                           ; 2 bytes @ 0x34
  2308  000094                     	ds	1
  2309  000095                     ??_PidPosition:
  2310  000095                     ?_efgtoa:
  2311                           	opt callstack 0
  2312  000095                     efgtoa@fp:
  2313                           	opt callstack 0
  2314                           
  2315                           ; 2 bytes @ 0x35
  2316  000095                     	ds	1
  2317  000096                     xtoa@c:
  2318                           	opt callstack 0
  2319                           
  2320                           ; 2 bytes @ 0x36
  2321  000096                     	ds	1
  2322  000097                     efgtoa@f:
  2323                           	opt callstack 0
  2324                           
  2325                           ; 4 bytes @ 0x37
  2326  000097                     	ds	4
  2327  00009B                     efgtoa@c:
  2328                           	opt callstack 0
  2329                           
  2330                           ; 1 bytes @ 0x3B
  2331  00009B                     	ds	1
  2332  00009C                     ??_efgtoa:
  2333                           
  2334                           ; 1 bytes @ 0x3C
  2335  00009C                     	ds	5
  2336  0000A1                     efgtoa@ou:
  2337                           	opt callstack 0
  2338  0000A1                     _PidPosition$3384:
  2339                           	opt callstack 0
  2340                           
  2341                           ; 4 bytes @ 0x41
  2342  0000A1                     	ds	4
  2343  0000A5                     PidPosition@flgChPos:
  2344                           	opt callstack 0
  2345  0000A5                     _efgtoa$2357:
  2346                           	opt callstack 0
  2347                           
  2348                           ; 2 bytes @ 0x45
  2349  0000A5                     	ds	1
  2350  0000A6                     PidPosition@operation:
  2351                           	opt callstack 0
  2352                           
  2353                           ; 4 bytes @ 0x46
  2354  0000A6                     	ds	1
  2355  0000A7                     _efgtoa$2358:
  2356                           	opt callstack 0
  2357                           
  2358                           ; 2 bytes @ 0x47
  2359  0000A7                     	ds	2
  2360  0000A9                     _efgtoa$2362:
  2361                           	opt callstack 0
  2362                           
  2363                           ; 2 bytes @ 0x49
  2364  0000A9                     	ds	1
  2365  0000AA                     PidPosition@j:
  2366                           	opt callstack 0
  2367                           
  2368                           ; 1 bytes @ 0x4A
  2369  0000AA                     	ds	1
  2370  0000AB                     PidPosition@i:
  2371                           	opt callstack 0
  2372  0000AB                     _efgtoa$2366:
  2373                           	opt callstack 0
  2374                           
  2375                           ; 2 bytes @ 0x4B
  2376  0000AB                     	ds	2
  2377  0000AD                     _efgtoa$2367:
  2378                           	opt callstack 0
  2379                           
  2380                           ; 2 bytes @ 0x4D
  2381  0000AD                     	ds	2
  2382  0000AF                     _efgtoa$2368:
  2383                           	opt callstack 0
  2384                           
  2385                           ; 2 bytes @ 0x4F
  2386  0000AF                     	ds	2
  2387  0000B1                     efgtoa@t:
  2388                           	opt callstack 0
  2389                           
  2390                           ; 2 bytes @ 0x51
  2391  0000B1                     	ds	2
  2392  0000B3                     efgtoa@pp:
  2393                           	opt callstack 0
  2394                           
  2395                           ; 2 bytes @ 0x53
  2396  0000B3                     	ds	2
  2397  0000B5                     efgtoa@m:
  2398                           	opt callstack 0
  2399                           
  2400                           ; 2 bytes @ 0x55
  2401  0000B5                     	ds	2
  2402  0000B7                     efgtoa@ne:
  2403                           	opt callstack 0
  2404                           
  2405                           ; 2 bytes @ 0x57
  2406  0000B7                     	ds	2
  2407  0000B9                     efgtoa@d:
  2408                           	opt callstack 0
  2409                           
  2410                           ; 2 bytes @ 0x59
  2411  0000B9                     	ds	2
  2412  0000BB                     efgtoa@sign:
  2413                           	opt callstack 0
  2414                           
  2415                           ; 2 bytes @ 0x5B
  2416  0000BB                     	ds	2
  2417  0000BD                     efgtoa@p:
  2418                           	opt callstack 0
  2419                           
  2420                           ; 2 bytes @ 0x5D
  2421  0000BD                     	ds	2
  2422  0000BF                     efgtoa@nmode:
  2423                           	opt callstack 0
  2424                           
  2425                           ; 1 bytes @ 0x5F
  2426  0000BF                     	ds	1
  2427  0000C0                     efgtoa@w:
  2428                           	opt callstack 0
  2429                           
  2430                           ; 2 bytes @ 0x60
  2431  0000C0                     	ds	2
  2432  0000C2                     efgtoa@mode:
  2433                           	opt callstack 0
  2434                           
  2435                           ; 1 bytes @ 0x62
  2436  0000C2                     	ds	1
  2437  0000C3                     efgtoa@h:
  2438                           	opt callstack 0
  2439                           
  2440                           ; 4 bytes @ 0x63
  2441  0000C3                     	ds	4
  2442  0000C7                     efgtoa@l:
  2443                           	opt callstack 0
  2444                           
  2445                           ; 4 bytes @ 0x67
  2446  0000C7                     	ds	4
  2447  0000CB                     efgtoa@i:
  2448                           	opt callstack 0
  2449                           
  2450                           ; 2 bytes @ 0x6B
  2451  0000CB                     	ds	2
  2452  0000CD                     efgtoa@g:
  2453                           	opt callstack 0
  2454                           
  2455                           ; 4 bytes @ 0x6D
  2456  0000CD                     	ds	4
  2457  0000D1                     efgtoa@e:
  2458                           	opt callstack 0
  2459                           
  2460                           ; 2 bytes @ 0x71
  2461  0000D1                     	ds	2
  2462  0000D3                     efgtoa@n:
  2463                           	opt callstack 0
  2464                           
  2465                           ; 2 bytes @ 0x73
  2466  0000D3                     	ds	2
  2467  0000D5                     efgtoa@u:
  2468                           	opt callstack 0
  2469                           
  2470                           ; 4 bytes @ 0x75
  2471  0000D5                     	ds	4
  2472  0000D9                     ?_vfpfcnvrt:
  2473                           	opt callstack 0
  2474  0000D9                     vfpfcnvrt@fp:
  2475                           	opt callstack 0
  2476                           
  2477                           ; 2 bytes @ 0x79
  2478  0000D9                     	ds	2
  2479  0000DB                     vfpfcnvrt@fmt:
  2480                           	opt callstack 0
  2481                           
  2482                           ; 2 bytes @ 0x7B
  2483  0000DB                     	ds	2
  2484  0000DD                     vfpfcnvrt@ap:
  2485                           	opt callstack 0
  2486                           
  2487                           ; 2 bytes @ 0x7D
  2488  0000DD                     	ds	2
  2489  0000DF                     ??_vfpfcnvrt:
  2490                           
  2491                           ; 1 bytes @ 0x7F
  2492  0000DF                     	ds	14
  2493  0000ED                     ?_vfprintf:
  2494                           	opt callstack 0
  2495  0000ED                     vfprintf@fp:
  2496                           	opt callstack 0
  2497                           
  2498                           ; 2 bytes @ 0x8D
  2499  0000ED                     	ds	2
  2500  0000EF                     vfprintf@fmt:
  2501                           	opt callstack 0
  2502                           
  2503                           ; 2 bytes @ 0x8F
  2504  0000EF                     	ds	2
  2505  0000F1                     vfprintf@ap:
  2506                           	opt callstack 0
  2507                           
  2508                           ; 2 bytes @ 0x91
  2509  0000F1                     	ds	2
  2510  0000F3                     vfprintf@cfmt:
  2511                           	opt callstack 0
  2512                           
  2513                           ; 2 bytes @ 0x93
  2514  0000F3                     	ds	4
  2515  0000F7                     printf@ap:
  2516                           	opt callstack 0
  2517                           
  2518                           ; 2 bytes @ 0x97
  2519  0000F7                     	ds	2
  2520  0000F9                     ??_usrcmd_LED:
  2521  0000F9                     ??_usrcmd_Counter:
  2522  0000F9                     ??_usrcmd_Speed:
  2523  0000F9                     ??_usrcmd_Brake:
  2524  0000F9                     ??_usrcmd_GateTime:
  2525  0000F9                     ??_usrcmd_ConstantP:
  2526  0000F9                     ??_usrcmd_ConstantN:
  2527  0000F9                     ??_usrcmd_Position:
  2528  0000F9                     ??_usrcmd_TA:
  2529  0000F9                     ??_usrcmd_Echo:
  2530  0000F9                     ??_usrcmd_Frequency:
  2531  0000F9                     ??_usrcmd_Debug:
  2532  0000F9                     ??_usrcmd_Version:
  2533                           
  2534                           ; 1 bytes @ 0x99
  2535  0000F9                     	ds	5
  2536                           
  2537                           	psect	cstackCOMRAM
  2538  000001                     __pcstackCOMRAM:
  2539                           	opt callstack 0
  2540  000001                     i1PWM0@aDutyCycle:
  2541                           	opt callstack 0
  2542  000001                     i1PWM1@aDutyCycle:
  2543                           	opt callstack 0
  2544                           
  2545                           ; 2 bytes @ 0x0
  2546  000001                     	ds	2
  2547  000003                     ??i1_PWM0:
  2548  000003                     ??i1_PWM1:
  2549                           
  2550                           ; 1 bytes @ 0x2
  2551  000003                     	ds	2
  2552  000005                     i1SetPWM@aDutyCycle:
  2553                           	opt callstack 0
  2554                           
  2555                           ; 2 bytes @ 0x4
  2556  000005                     	ds	2
  2557  000007                     i1SetPWM@aCh:
  2558                           	opt callstack 0
  2559                           
  2560                           ; 1 bytes @ 0x6
  2561  000007                     	ds	1
  2562  000008                     i1SetPWM@pwm:
  2563                           	opt callstack 0
  2564                           
  2565                           ; 2 bytes @ 0x7
  2566  000008                     	ds	2
  2567  00000A                     ??_GateTimeHandling:
  2568                           
  2569                           ; 1 bytes @ 0x9
  2570  00000A                     	ds	6
  2571  000010                     GateTimeHandling@flgChannel:
  2572                           	opt callstack 0
  2573                           
  2574                           ; 1 bytes @ 0xF
  2575  000010                     	ds	1
  2576  000011                     GateTimeHandling@i:
  2577                           	opt callstack 0
  2578                           
  2579                           ; 2 bytes @ 0x10
  2580  000011                     	ds	2
  2581  000013                     ??_isrLow:
  2582                           
  2583                           ; 1 bytes @ 0x12
  2584  000013                     	ds	9
  2585  00001C                     ?_skip_white_space:
  2586                           	opt callstack 0
  2587  00001C                     ?_skip_text_string:
  2588                           	opt callstack 0
  2589  00001C                     ?_strlen:
  2590                           	opt callstack 0
  2591  00001C                     ?___fpclassifyf:
  2592                           	opt callstack 0
  2593  00001C                     ?_isupper:
  2594                           	opt callstack 0
  2595  00001C                     ?_isalpha:
  2596                           	opt callstack 0
  2597  00001C                     ?_isdigit:
  2598                           	opt callstack 0
  2599  00001C                     ?_strncmp:
  2600                           	opt callstack 0
  2601  00001C                     ?_isspace:
  2602                           	opt callstack 0
  2603  00001C                     ?_islower:
  2604                           	opt callstack 0
  2605  00001C                     ?_ntlibc_strcmp:
  2606                           	opt callstack 0
  2607  00001C                     ?___wmul:
  2608                           	opt callstack 0
  2609  00001C                     ?___awdiv:
  2610                           	opt callstack 0
  2611  00001C                     ?___awmod:
  2612                           	opt callstack 0
  2613  00001C                     ?___fldiv:
  2614                           	opt callstack 0
  2615  00001C                     ?___lmul:
  2616                           	opt callstack 0
  2617  00001C                     ?___almod:
  2618                           	opt callstack 0
  2619  00001C                     ?___flneg:
  2620                           	opt callstack 0
  2621  00001C                     ?___xxtofl:
  2622                           	opt callstack 0
  2623  00001C                     SetBrake@aCh:
  2624                           	opt callstack 0
  2625  00001C                     SetForward@aCh:
  2626                           	opt callstack 0
  2627  00001C                     SetBackward@aCh:
  2628                           	opt callstack 0
  2629  00001C                     eep_read@aEadd:
  2630                           	opt callstack 0
  2631  00001C                     eep_write@aEdata:
  2632                           	opt callstack 0
  2633  00001C                     putch@aC:
  2634                           	opt callstack 0
  2635  00001C                     ___aodiv@counter:
  2636                           	opt callstack 0
  2637  00001C                     ___aomod@counter:
  2638                           	opt callstack 0
  2639  00001C                     PWM0@aDutyCycle:
  2640                           	opt callstack 0
  2641  00001C                     PWM1@aDutyCycle:
  2642                           	opt callstack 0
  2643  00001C                     buf_clear@buf:
  2644                           	opt callstack 0
  2645  00001C                     ntlibc_strcmp@s1:
  2646                           	opt callstack 0
  2647  00001C                     mscmd_init@handle:
  2648                           	opt callstack 0
  2649  00001C                     skip_white_space@text:
  2650                           	opt callstack 0
  2651  00001C                     skip_text_string@text:
  2652                           	opt callstack 0
  2653  00001C                     msopt_get_argc@handle:
  2654                           	opt callstack 0
  2655  00001C                     msopt_get_argv@handle:
  2656                           	opt callstack 0
  2657  00001C                     ___wmul@multiplier:
  2658                           	opt callstack 0
  2659  00001C                     ___awdiv@dividend:
  2660                           	opt callstack 0
  2661  00001C                     ___awmod@dividend:
  2662                           	opt callstack 0
  2663  00001C                     isalpha@c:
  2664                           	opt callstack 0
  2665  00001C                     isdigit@c:
  2666                           	opt callstack 0
  2667  00001C                     isspace@c:
  2668                           	opt callstack 0
  2669  00001C                     isupper@c:
  2670                           	opt callstack 0
  2671  00001C                     strcpy@dest:
  2672                           	opt callstack 0
  2673  00001C                     strlen@s:
  2674                           	opt callstack 0
  2675  00001C                     strncmp@_l:
  2676                           	opt callstack 0
  2677  00001C                     islower@c:
  2678                           	opt callstack 0
  2679  00001C                     SetPosition@aNewTarget:
  2680                           	opt callstack 0
  2681  00001C                     ___lmul@multiplier:
  2682                           	opt callstack 0
  2683  00001C                     ___almod@dividend:
  2684                           	opt callstack 0
  2685  00001C                     ___fleq@ff1:
  2686                           	opt callstack 0
  2687  00001C                     ___flneg@f1:
  2688                           	opt callstack 0
  2689  00001C                     ___fldiv@b:
  2690                           	opt callstack 0
  2691  00001C                     ___xxtofl@val:
  2692                           	opt callstack 0
  2693  00001C                     ___fpclassifyf@x:
  2694                           	opt callstack 0
  2695                           
  2696                           ; 4 bytes @ 0x1B
  2697  00001C                     	ds	1
  2698  00001D                     eep_read@edata:
  2699                           	opt callstack 0
  2700  00001D                     eep_write@aEadd:
  2701                           	opt callstack 0
  2702  00001D                     myGetche@c:
  2703                           	opt callstack 0
  2704  00001D                     ___aodiv@sign:
  2705                           	opt callstack 0
  2706  00001D                     ___aomod@sign:
  2707                           	opt callstack 0
  2708  00001D                     SetBrake@brake:
  2709                           	opt callstack 0
  2710  00001D                     SetForward@forward:
  2711                           	opt callstack 0
  2712  00001D                     SetBackward@backward:
  2713                           	opt callstack 0
  2714  00001D                     myPuts@s:
  2715                           	opt callstack 0
  2716  00001D                     fputc@c:
  2717                           	opt callstack 0
  2718                           
  2719                           ; 2 bytes @ 0x1C
  2720  00001D                     	ds	1
  2721  00001E                     ??_isupper:
  2722  00001E                     ??_isalpha:
  2723  00001E                     ??_isdigit:
  2724  00001E                     ??_isspace:
  2725  00001E                     ??_islower:
  2726  00001E                     ??_PWM0:
  2727  00001E                     ??_PWM1:
  2728  00001E                     ?_abs:
  2729                           	opt callstack 0
  2730  00001E                     write_int_to_eeprom@aData:
  2731                           	opt callstack 0
  2732  00001E                     read_int_from_eeprom@aData:
  2733                           	opt callstack 0
  2734  00001E                     read_float_from_eeprom@aData:
  2735                           	opt callstack 0
  2736  00001E                     buf_clear@n:
  2737                           	opt callstack 0
  2738  00001E                     ntlibc_strcmp@s2:
  2739                           	opt callstack 0
  2740  00001E                     mscmd_init@command_table:
  2741                           	opt callstack 0
  2742  00001E                     skip_text_string@length:
  2743                           	opt callstack 0
  2744  00001E                     msopt_get_argc@argc:
  2745                           	opt callstack 0
  2746  00001E                     msopt_get_argv@index:
  2747                           	opt callstack 0
  2748  00001E                     ___wmul@multiplicand:
  2749                           	opt callstack 0
  2750  00001E                     ___awdiv@divisor:
  2751                           	opt callstack 0
  2752  00001E                     ___awmod@divisor:
  2753                           	opt callstack 0
  2754  00001E                     abs@a:
  2755                           	opt callstack 0
  2756  00001E                     strcpy@src:
  2757                           	opt callstack 0
  2758  00001E                     strlen@a:
  2759                           	opt callstack 0
  2760  00001E                     strncmp@_r:
  2761                           	opt callstack 0
  2762  00001E                     write_float_to_eeprom@aData:
  2763                           	opt callstack 0
  2764  00001E                     ___aodiv@quotient:
  2765                           	opt callstack 0
  2766                           
  2767                           ; 8 bytes @ 0x1D
  2768  00001E                     	ds	1
  2769  00001F                     skip_white_space@p:
  2770                           	opt callstack 0
  2771  00001F                     fputc@fp:
  2772                           	opt callstack 0
  2773                           
  2774                           ; 2 bytes @ 0x1E
  2775  00001F                     	ds	1
  2776  000020                     ??_abs:
  2777  000020                     ??_SetPosition:
  2778  000020                     ??___fpclassifyf:
  2779  000020                     ??_strcpy:
  2780  000020                     ??_buf_clear:
  2781  000020                     ??_ntlibc_strcmp:
  2782  000020                     ??___xxtofl:
  2783  000020                     write_int_to_eeprom@aEadd:
  2784                           	opt callstack 0
  2785  000020                     read_int_from_eeprom@aEadd:
  2786                           	opt callstack 0
  2787  000020                     ___awdiv@counter:
  2788                           	opt callstack 0
  2789  000020                     ___awmod@counter:
  2790                           	opt callstack 0
  2791  000020                     mscmd_init@command_count:
  2792                           	opt callstack 0
  2793  000020                     msopt_get_argv@bufptr:
  2794                           	opt callstack 0
  2795  000020                     ___wmul@product:
  2796                           	opt callstack 0
  2797  000020                     strncmp@n:
  2798                           	opt callstack 0
  2799  000020                     ___lmul@multiplicand:
  2800                           	opt callstack 0
  2801  000020                     ___almod@divisor:
  2802                           	opt callstack 0
  2803  000020                     ___fleq@ff2:
  2804                           	opt callstack 0
  2805  000020                     ___fldiv@a:
  2806                           	opt callstack 0
  2807                           
  2808                           ; 4 bytes @ 0x1F
  2809  000020                     	ds	1
  2810  000021                     ??_fputc:
  2811  000021                     ___awdiv@sign:
  2812                           	opt callstack 0
  2813  000021                     ___awmod@sign:
  2814                           	opt callstack 0
  2815  000021                     write_int_to_eeprom@pointer:
  2816                           	opt callstack 0
  2817  000021                     read_int_from_eeprom@pointer:
  2818                           	opt callstack 0
  2819  000021                     buf_clear@i:
  2820                           	opt callstack 0
  2821  000021                     ntlibc_strcmp@p1:
  2822                           	opt callstack 0
  2823  000021                     skip_text_string@count:
  2824                           	opt callstack 0
  2825                           
  2826                           ; 2 bytes @ 0x20
  2827  000021                     	ds	1
  2828  000022                     ??_strncmp:
  2829  000022                     ?_tolower:
  2830                           	opt callstack 0
  2831  000022                     ?_toupper:
  2832                           	opt callstack 0
  2833  000022                     write_float_to_eeprom@aEadd:
  2834                           	opt callstack 0
  2835  000022                     SetPosition@flgChPos:
  2836                           	opt callstack 0
  2837  000022                     _isspace$2940:
  2838                           	opt callstack 0
  2839  000022                     SetPWM@aDutyCycle:
  2840                           	opt callstack 0
  2841  000022                     mscmd_init@usrobj:
  2842                           	opt callstack 0
  2843  000022                     msopt_get_argv@bufsiz:
  2844                           	opt callstack 0
  2845  000022                     ___awdiv@quotient:
  2846                           	opt callstack 0
  2847  000022                     strcpy@s:
  2848                           	opt callstack 0
  2849  000022                     tolower@c:
  2850                           	opt callstack 0
  2851  000022                     toupper@c:
  2852                           	opt callstack 0
  2853                           
  2854                           ; 2 bytes @ 0x21
  2855  000022                     	ds	1
  2856  000023                     ?_atoi:
  2857                           	opt callstack 0
  2858  000023                     write_int_to_eeprom@byte:
  2859                           	opt callstack 0
  2860  000023                     SetPosition@aCh:
  2861                           	opt callstack 0
  2862  000023                     read_int_from_eeprom@temp:
  2863                           	opt callstack 0
  2864  000023                     write_float_to_eeprom@pointer:
  2865                           	opt callstack 0
  2866  000023                     mscore_init@handle:
  2867                           	opt callstack 0
  2868  000023                     ntlibc_strcmp@p2:
  2869                           	opt callstack 0
  2870  000023                     skip_text_string@p:
  2871                           	opt callstack 0
  2872  000023                     atoi@s:
  2873                           	opt callstack 0
  2874  000023                     strncmp@l:
  2875                           	opt callstack 0
  2876                           
  2877                           ; 2 bytes @ 0x22
  2878  000023                     	ds	1
  2879  000024                     ??_tolower:
  2880  000024                     ??_toupper:
  2881  000024                     ??___fldiv:
  2882  000024                     ??___flmul:
  2883  000024                     ??___fleq:
  2884  000024                     SetPWM@aCh:
  2885                           	opt callstack 0
  2886  000024                     ___almod@counter:
  2887                           	opt callstack 0
  2888  000024                     write_int_to_eeprom@i:
  2889                           	opt callstack 0
  2890  000024                     strcpy@d:
  2891                           	opt callstack 0
  2892  000024                     ___lmul@product:
  2893                           	opt callstack 0
  2894                           
  2895                           ; 4 bytes @ 0x23
  2896  000024                     	ds	1
  2897  000025                     write_float_to_eeprom@byte:
  2898                           	opt callstack 0
  2899  000025                     ___almod@sign:
  2900                           	opt callstack 0
  2901  000025                     SetPWM@pwm:
  2902                           	opt callstack 0
  2903  000025                     read_int_from_eeprom@i:
  2904                           	opt callstack 0
  2905  000025                     strncmp@r:
  2906                           	opt callstack 0
  2907                           
  2908                           ; 2 bytes @ 0x24
  2909  000025                     	ds	1
  2910  000026                     ??_pad:
  2911  000026                     write_float_to_eeprom@i:
  2912                           	opt callstack 0
  2913                           
  2914                           ; 2 bytes @ 0x25
  2915  000026                     	ds	1
  2916  000027                     TrapezoidalAccel@i:
  2917                           	opt callstack 0
  2918                           
  2919                           ; 1 bytes @ 0x26
  2920  000027                     	ds	1
  2921  000028                     
  2922                           ; 1 bytes @ 0x27
  2923 ;;
  2924 ;;Main: autosize = 0, tempsize = 0, incstack = 0, save=0
  2925 ;;
  2926 ;; *************** function _main *****************
  2927 ;; Defined at:
  2928 ;;		line 60 in file "main.c"
  2929 ;; Parameters:    Size  Location     Type
  2930 ;;		None
  2931 ;; Auto vars:     Size  Location     Type
  2932 ;;  r               2  147[BANK1 ] int 
  2933 ;;  buf            32  115[BANK1 ] unsigned char [32]
  2934 ;;  ms             16  149[BANK1 ] struct .
  2935 ;;  mscmd           6  166[BANK1 ] struct .
  2936 ;;  i               1  172[BANK1 ] unsigned char 
  2937 ;;  c               1  165[BANK1 ] unsigned char 
  2938 ;; Return value:  Size  Location     Type
  2939 ;;                  1    wreg      void 
  2940 ;; Registers used:
  2941 ;;		wreg, fsr0l, fsr0h, fsr1l, fsr1h, fsr2l, fsr2h, status,2, status,0, pclath, tosl, tblptrl, tblptrh, tblptru, prodl, 
      +prodh, cstack
  2942 ;; Tracked objects:
  2943 ;;		On entry : 0/0
  2944 ;;		On exit  : 0/0
  2945 ;;		Unchanged: 0/0
  2946 ;; Data sizes:     COMRAM   BANK0   BANK1   BANK2   BANK3   BANK4   BANK5   BANK6   BANK7   BANK8   BANK9  BANK10  BANK1
      +1  BANK12  BANK13  BANK14  BANK15
  2947 ;;      Params:         0       0       0       0       0       0       0       0       0       0       0       0       
      +0       0       0       0       0
  2948 ;;      Locals:         0       0      58       0       0       0       0       0       0       0       0       0       
      +0       0       0       0       0
  2949 ;;      Temps:          0       0       0       0       0       0       0       0       0       0       0       0       
      +0       0       0       0       0
  2950 ;;      Totals:         0       0      58       0       0       0       0       0       0       0       0       0       
      +0       0       0       0       0
  2951 ;;Total ram usage:       58 bytes
  2952 ;; Hardware stack levels required when called:   15
  2953 ;; This function calls:
  2954 ;;		_BlinkAlive
  2955 ;;		_InitChannel
  2956 ;;		_InitEnc
  2957 ;;		_InitI2C
  2958 ;;		_InitIO
  2959 ;;		_InitPWM
  2960 ;;		_InitUART
  2961 ;;		_PID
  2962 ;;		_ResetScreen
  2963 ;;		_SetPWM
  2964 ;;		_TrapezoidalAccel
  2965 ;;		_microshell_init
  2966 ;;		_mscmd_execute
  2967 ;;		_mscmd_init
  2968 ;;		_myGetch
  2969 ;;		_myGetche
  2970 ;;		_myKbhit
  2971 ;;		_myPuts
  2972 ;;		_read_float_from_eeprom
  2973 ;;		_read_int_from_eeprom
  2974 ;;		_write_float_to_eeprom
  2975 ;;		_write_int_to_eeprom
  2976 ;; This function is called by:
  2977 ;;		Startup code after reset
  2978 ;; This function uses a non-reentrant model
  2979 ;;
  2980                           
  2981                           	psect	text0
  2982  003398                     __ptext0:
  2983                           	opt callstack 0
  2984  003398                     _main:
  2985                           	opt callstack 16
  2986  003398                     
  2987                           ;main.c: 62:     char buf[(32)];;main.c: 63:     MICROSHELL ms;;main.c: 64:     MSCMD ms
      +                          cmd;;main.c: 66:     char c, i;;main.c: 68:     InitIO();
  2988  003398  EC9F  F03D         	call	_InitIO	;wreg free
  2989                           
  2990                           ;main.c: 69:     InitPWM();
  2991  00339C  EC3B  F03D         	call	_InitPWM	;wreg free
  2992  0033A0                     
  2993                           ;main.c: 70:     InitUART();
  2994  0033A0  EC24  F03D         	call	_InitUART	;wreg free
  2995  0033A4                     
  2996                           ;main.c: 71:     InitEnc();
  2997  0033A4  ECAF  F03D         	call	_InitEnc	;wreg free
  2998  0033A8                     
  2999                           ;main.c: 72:     InitChannel();
  3000  0033A8  EC3E  F03B         	call	_InitChannel	;wreg free
  3001  0033AC                     
  3002                           ;main.c: 73:     InitI2C();
  3003  0033AC  ECD4  F03D         	call	_InitI2C	;wreg free
  3004  0033B0                     
  3005                           ;main.c: 75:     if (PORTAbits.RA1 == PLUG_ON){
  3006  0033B0  B280               	btfsc	128,1,c	;volatile
  3007  0033B2  EFDD  F019         	goto	u14371
  3008  0033B6  EFDF  F019         	goto	u14370
  3009  0033BA                     u14371:
  3010  0033BA  EF75  F01A         	goto	l14102
  3011  0033BE                     u14370:
  3012  0033BE                     
  3013                           ;main.c: 76:         gP_gain[0] = 1.8;
  3014  0033BE  0E66               	movlw	102
  3015  0033C0  0101               	movlb	1	; () banked
  3016  0033C2  6FBA               	movwf	_gP_gain& (0+255),b
  3017  0033C4  0E66               	movlw	102
  3018  0033C6  6FBB               	movwf	(_gP_gain+1)& (0+255),b
  3019  0033C8  0EE6               	movlw	230
  3020  0033CA  6FBC               	movwf	(_gP_gain+2)& (0+255),b
  3021  0033CC  0E3F               	movlw	63
  3022  0033CE  6FBD               	movwf	(_gP_gain+3)& (0+255),b
  3023                           
  3024                           ;main.c: 77:         gI_gain[0] = 0.6;
  3025  0033D0  0E9A               	movlw	154
  3026  0033D2  6FB2               	movwf	_gI_gain& (0+255),b
  3027  0033D4  0E99               	movlw	153
  3028  0033D6  6FB3               	movwf	(_gI_gain+1)& (0+255),b
  3029  0033D8  0E19               	movlw	25
  3030  0033DA  6FB4               	movwf	(_gI_gain+2)& (0+255),b
  3031  0033DC  0E3F               	movlw	63
  3032  0033DE  6FB5               	movwf	(_gI_gain+3)& (0+255),b
  3033                           
  3034                           ;main.c: 78:         gD_gain[0] = 1.6;
  3035  0033E0  0ECD               	movlw	205
  3036  0033E2  6E36               	movwf	_gD_gain^0,c
  3037  0033E4  0ECC               	movlw	204
  3038  0033E6  6E37               	movwf	(_gD_gain+1)^0,c
  3039  0033E8  0ECC               	movlw	204
  3040  0033EA  6E38               	movwf	(_gD_gain+2)^0,c
  3041  0033EC  0E3F               	movlw	63
  3042  0033EE  6E39               	movwf	(_gD_gain+3)^0,c
  3043  0033F0                     
  3044                           ; BSR set to: 1
  3045                           ;main.c: 79:         write_float_to_eeprom(ADDR_EEPROM_KP_N, gP_gain[0]);
  3046  0033F0  C1BA  F01E         	movff	_gP_gain,write_float_to_eeprom@aData
  3047  0033F4  C1BB  F01F         	movff	_gP_gain+1,write_float_to_eeprom@aData+1
  3048  0033F8  C1BC  F020         	movff	_gP_gain+2,write_float_to_eeprom@aData+2
  3049  0033FC  C1BD  F021         	movff	_gP_gain+3,write_float_to_eeprom@aData+3
  3050  003400  0E00               	movlw	0
  3051  003402  EC3F  F03A         	call	_write_float_to_eeprom
  3052  003406                     
  3053                           ;main.c: 80:         write_float_to_eeprom(ADDR_EEPROM_KI_N, gI_gain[0]);
  3054  003406  C1B2  F01E         	movff	_gI_gain,write_float_to_eeprom@aData
  3055  00340A  C1B3  F01F         	movff	_gI_gain+1,write_float_to_eeprom@aData+1
  3056  00340E  C1B4  F020         	movff	_gI_gain+2,write_float_to_eeprom@aData+2
  3057  003412  C1B5  F021         	movff	_gI_gain+3,write_float_to_eeprom@aData+3
  3058  003416  0E08               	movlw	8
  3059  003418  EC3F  F03A         	call	_write_float_to_eeprom
  3060  00341C                     
  3061                           ;main.c: 81:         write_float_to_eeprom(ADDR_EEPROM_KD_N, gD_gain[0]);
  3062  00341C  C036  F01E         	movff	_gD_gain,write_float_to_eeprom@aData
  3063  003420  C037  F01F         	movff	_gD_gain+1,write_float_to_eeprom@aData+1
  3064  003424  C038  F020         	movff	_gD_gain+2,write_float_to_eeprom@aData+2
  3065  003428  C039  F021         	movff	_gD_gain+3,write_float_to_eeprom@aData+3
  3066  00342C  0E10               	movlw	16
  3067  00342E  EC3F  F03A         	call	_write_float_to_eeprom
  3068  003432                     
  3069                           ;main.c: 83:         gP_gain[1] = 1.6;
  3070  003432  0ECD               	movlw	205
  3071  003434  0101               	movlb	1	; () banked
  3072  003436  6FBE               	movwf	(_gP_gain+4)& (0+255),b
  3073  003438  0ECC               	movlw	204
  3074  00343A  6FBF               	movwf	(_gP_gain+5)& (0+255),b
  3075  00343C  0ECC               	movlw	204
  3076  00343E  6FC0               	movwf	(_gP_gain+6)& (0+255),b
  3077  003440  0E3F               	movlw	63
  3078  003442  6FC1               	movwf	(_gP_gain+7)& (0+255),b
  3079  003444                     
  3080                           ; BSR set to: 1
  3081                           ;main.c: 84:         gI_gain[1] = 0.4;
  3082  003444  0ECD               	movlw	205
  3083  003446  6FB6               	movwf	(_gI_gain+4)& (0+255),b
  3084  003448  0ECC               	movlw	204
  3085  00344A  6FB7               	movwf	(_gI_gain+5)& (0+255),b
  3086  00344C  0ECC               	movlw	204
  3087  00344E  6FB8               	movwf	(_gI_gain+6)& (0+255),b
  3088  003450  0E3E               	movlw	62
  3089  003452  6FB9               	movwf	(_gI_gain+7)& (0+255),b
  3090  003454                     
  3091                           ; BSR set to: 1
  3092                           ;main.c: 85:         gD_gain[1] = 1.0;
  3093  003454  0E00               	movlw	0
  3094  003456  6E3A               	movwf	(_gD_gain+4)^0,c
  3095  003458  0E00               	movlw	0
  3096  00345A  6E3B               	movwf	(_gD_gain+5)^0,c
  3097  00345C  0E80               	movlw	128
  3098  00345E  6E3C               	movwf	(_gD_gain+6)^0,c
  3099  003460  0E3F               	movlw	63
  3100  003462  6E3D               	movwf	(_gD_gain+7)^0,c
  3101                           
  3102                           ;main.c: 86:         write_float_to_eeprom(ADDR_EEPROM_KP_P, gP_gain[1]);
  3103  003464  C1BE  F01E         	movff	_gP_gain+4,write_float_to_eeprom@aData
  3104  003468  C1BF  F01F         	movff	_gP_gain+5,write_float_to_eeprom@aData+1
  3105  00346C  C1C0  F020         	movff	_gP_gain+6,write_float_to_eeprom@aData+2
  3106  003470  C1C1  F021         	movff	_gP_gain+7,write_float_to_eeprom@aData+3
  3107  003474  0E18               	movlw	24
  3108  003476  EC3F  F03A         	call	_write_float_to_eeprom
  3109                           
  3110                           ;main.c: 87:         write_float_to_eeprom(ADDR_EEPROM_KI_P, gI_gain[1]);
  3111  00347A  C1B6  F01E         	movff	_gI_gain+4,write_float_to_eeprom@aData
  3112  00347E  C1B7  F01F         	movff	_gI_gain+5,write_float_to_eeprom@aData+1
  3113  003482  C1B8  F020         	movff	_gI_gain+6,write_float_to_eeprom@aData+2
  3114  003486  C1B9  F021         	movff	_gI_gain+7,write_float_to_eeprom@aData+3
  3115  00348A  0E20               	movlw	32
  3116  00348C  EC3F  F03A         	call	_write_float_to_eeprom
  3117                           
  3118                           ;main.c: 88:         write_float_to_eeprom(ADDR_EEPROM_KD_P, gD_gain[1]);
  3119  003490  C03A  F01E         	movff	_gD_gain+4,write_float_to_eeprom@aData
  3120  003494  C03B  F01F         	movff	_gD_gain+5,write_float_to_eeprom@aData+1
  3121  003498  C03C  F020         	movff	_gD_gain+6,write_float_to_eeprom@aData+2
  3122  00349C  C03D  F021         	movff	_gD_gain+7,write_float_to_eeprom@aData+3
  3123  0034A0  0E28               	movlw	40
  3124  0034A2  EC3F  F03A         	call	_write_float_to_eeprom
  3125  0034A6                     
  3126                           ;main.c: 90:         gFlgTzEnable = 0;
  3127  0034A6  0E00               	movlw	0
  3128  0034A8  6E41               	movwf	(_gFlgTzEnable+1)^0,c
  3129  0034AA  0E00               	movlw	0
  3130  0034AC  6E40               	movwf	_gFlgTzEnable^0,c
  3131  0034AE                     
  3132                           ;main.c: 91:         gTzPeriod = 100;
  3133  0034AE  0E00               	movlw	0
  3134  0034B0  6E3F               	movwf	(_gTzPeriod+1)^0,c
  3135  0034B2  0E64               	movlw	100
  3136  0034B4  6E3E               	movwf	_gTzPeriod^0,c
  3137  0034B6                     
  3138                           ;main.c: 92:         gTzStep = 10;
  3139  0034B6  0E00               	movlw	0
  3140  0034B8  0101               	movlb	1	; () banked
  3141  0034BA  6FC3               	movwf	(_gTzStep+1)& (0+255),b
  3142  0034BC  0E0A               	movlw	10
  3143  0034BE  6FC2               	movwf	_gTzStep& (0+255),b
  3144  0034C0                     
  3145                           ; BSR set to: 1
  3146                           ;main.c: 93:         write_int_to_eeprom(ADDR_EEPROM_TZ_FLG, gFlgTzEnable);
  3147  0034C0  C040  F01E         	movff	_gFlgTzEnable,write_int_to_eeprom@aData
  3148  0034C4  C041  F01F         	movff	_gFlgTzEnable+1,write_int_to_eeprom@aData+1
  3149  0034C8  0E30               	movlw	48
  3150  0034CA  EC1A  F03A         	call	_write_int_to_eeprom
  3151  0034CE                     
  3152                           ;main.c: 94:         write_int_to_eeprom(ADDR_EEPROM_TZ_PRD, gTzPeriod);
  3153  0034CE  C03E  F01E         	movff	_gTzPeriod,write_int_to_eeprom@aData
  3154  0034D2  C03F  F01F         	movff	_gTzPeriod+1,write_int_to_eeprom@aData+1
  3155  0034D6  0E32               	movlw	50
  3156  0034D8  EC1A  F03A         	call	_write_int_to_eeprom
  3157  0034DC                     
  3158                           ;main.c: 95:         write_int_to_eeprom(ADDR_EEPROM_TZ_STP, gTzStep);
  3159  0034DC  C1C2  F01E         	movff	_gTzStep,write_int_to_eeprom@aData
  3160  0034E0  C1C3  F01F         	movff	_gTzStep+1,write_int_to_eeprom@aData+1
  3161  0034E4  0E34               	movlw	52
  3162  0034E6  EC1A  F03A         	call	_write_int_to_eeprom
  3163  0034EA                     l14102:
  3164                           
  3165                           ;main.c: 98:     read_float_from_eeprom(ADDR_EEPROM_KP_N, &gP_gain[0]);
  3166  0034EA  0EBA               	movlw	low _gP_gain
  3167  0034EC  6E1E               	movwf	read_float_from_eeprom@aData^0,c
  3168  0034EE  0E01               	movlw	high _gP_gain
  3169  0034F0  6E1F               	movwf	(read_float_from_eeprom@aData+1)^0,c
  3170  0034F2  0E00               	movlw	0
  3171  0034F4  EC63  F038         	call	_read_float_from_eeprom
  3172  0034F8                     
  3173                           ;main.c: 99:     read_float_from_eeprom(ADDR_EEPROM_KI_N, &gI_gain[0]);
  3174  0034F8  0EB2               	movlw	low _gI_gain
  3175  0034FA  6E1E               	movwf	read_float_from_eeprom@aData^0,c
  3176  0034FC  0E01               	movlw	high _gI_gain
  3177  0034FE  6E1F               	movwf	(read_float_from_eeprom@aData+1)^0,c
  3178  003500  0E08               	movlw	8
  3179  003502  EC63  F038         	call	_read_float_from_eeprom
  3180  003506                     
  3181                           ;main.c: 100:     read_float_from_eeprom(ADDR_EEPROM_KD_N, &gD_gain[0]);
  3182  003506  0E36               	movlw	low _gD_gain
  3183  003508  6E1E               	movwf	read_float_from_eeprom@aData^0,c
  3184  00350A  0E00               	movlw	high _gD_gain
  3185  00350C  6E1F               	movwf	(read_float_from_eeprom@aData+1)^0,c
  3186  00350E  0E10               	movlw	16
  3187  003510  EC63  F038         	call	_read_float_from_eeprom
  3188  003514                     
  3189                           ;main.c: 102:     read_float_from_eeprom(ADDR_EEPROM_KP_P, &gP_gain[1]);
  3190  003514  0EBE               	movlw	low (_gP_gain+4)
  3191  003516  6E1E               	movwf	read_float_from_eeprom@aData^0,c
  3192  003518  0E01               	movlw	high (_gP_gain+4)
  3193  00351A  6E1F               	movwf	(read_float_from_eeprom@aData+1)^0,c
  3194  00351C  0E18               	movlw	24
  3195  00351E  EC63  F038         	call	_read_float_from_eeprom
  3196  003522                     
  3197                           ;main.c: 103:     read_float_from_eeprom(ADDR_EEPROM_KI_P, &gI_gain[1]);
  3198  003522  0EB6               	movlw	low (_gI_gain+4)
  3199  003524  6E1E               	movwf	read_float_from_eeprom@aData^0,c
  3200  003526  0E01               	movlw	high (_gI_gain+4)
  3201  003528  6E1F               	movwf	(read_float_from_eeprom@aData+1)^0,c
  3202  00352A  0E20               	movlw	32
  3203  00352C  EC63  F038         	call	_read_float_from_eeprom
  3204  003530                     
  3205                           ;main.c: 104:     read_float_from_eeprom(ADDR_EEPROM_KD_P, &gD_gain[1]);
  3206  003530  0E3A               	movlw	low (_gD_gain+4)
  3207  003532  6E1E               	movwf	read_float_from_eeprom@aData^0,c
  3208  003534  0E00               	movlw	high (_gD_gain+4)
  3209  003536  6E1F               	movwf	(read_float_from_eeprom@aData+1)^0,c
  3210  003538  0E28               	movlw	40
  3211  00353A  EC63  F038         	call	_read_float_from_eeprom
  3212  00353E                     
  3213                           ;main.c: 106:     read_int_from_eeprom(ADDR_EEPROM_TZ_FLG, &gFlgTzEnable);
  3214  00353E  0E40               	movlw	low _gFlgTzEnable
  3215  003540  6E1E               	movwf	read_int_from_eeprom@aData^0,c
  3216  003542  0E00               	movlw	high _gFlgTzEnable
  3217  003544  6E1F               	movwf	(read_int_from_eeprom@aData+1)^0,c
  3218  003546  0E30               	movlw	48
  3219  003548  EC24  F039         	call	_read_int_from_eeprom
  3220  00354C                     
  3221                           ;main.c: 107:     read_int_from_eeprom(ADDR_EEPROM_TZ_PRD, &gTzPeriod);
  3222  00354C  0E3E               	movlw	low _gTzPeriod
  3223  00354E  6E1E               	movwf	read_int_from_eeprom@aData^0,c
  3224  003550  0E00               	movlw	high _gTzPeriod
  3225  003552  6E1F               	movwf	(read_int_from_eeprom@aData+1)^0,c
  3226  003554  0E32               	movlw	50
  3227  003556  EC24  F039         	call	_read_int_from_eeprom
  3228  00355A                     
  3229                           ;main.c: 108:     read_int_from_eeprom(ADDR_EEPROM_TZ_STP, &gTzStep);
  3230  00355A  0EC2               	movlw	low _gTzStep
  3231  00355C  6E1E               	movwf	read_int_from_eeprom@aData^0,c
  3232  00355E  0E01               	movlw	high _gTzStep
  3233  003560  6E1F               	movwf	(read_int_from_eeprom@aData+1)^0,c
  3234  003562  0E34               	movlw	52
  3235  003564  EC24  F039         	call	_read_int_from_eeprom
  3236  003568                     
  3237                           ;main.c: 110:     gFlgControlLoop = kOPENLOOP;
  3238  003568  0E00               	movlw	0
  3239  00356A  0101               	movlb	1	; () banked
  3240  00356C  6FB1               	movwf	_gFlgControlLoop& (0+255),b
  3241  00356E                     
  3242                           ; BSR set to: 1
  3243                           ;main.c: 111:     gFlgControllingPosition = 0;
  3244  00356E  0E00               	movlw	0
  3245  003570  0100               	movlb	0	; () banked
  3246  003572  6FFE               	movwf	_gFlgControllingPosition& (0+255),b
  3247  003574                     
  3248                           ; BSR set to: 0
  3249                           ;main.c: 112:     gFlgEcho = 1;
  3250  003574  0E01               	movlw	1
  3251  003576  0101               	movlb	1	; () banked
  3252  003578  6FB0               	movwf	_gFlgEcho& (0+255),b
  3253  00357A                     
  3254                           ; BSR set to: 1
  3255                           ;main.c: 113:     gFlgDebug = 0;
  3256  00357A  0E00               	movlw	0
  3257  00357C  6FAF               	movwf	_gFlgDebug& (0+255),b
  3258  00357E                     
  3259                           ; BSR set to: 1
  3260                           ;main.c: 115:     for (i = 0;i < USED_CHANNEL;i++){
  3261  00357E  0E00               	movlw	0
  3262  003580  6FAC               	movwf	main@i& (0+255),b
  3263  003582                     l14134:
  3264                           
  3265                           ; BSR set to: 1
  3266                           ;main.c: 116:         gCountEnc[i] = 0;
  3267  003582  51AC               	movf	main@i& (0+255),w,b
  3268  003584  0D04               	mullw	4
  3269  003586  0E50               	movlw	low _gCountEnc
  3270  003588  24F3               	addwf	243,w,c
  3271  00358A  6ED9               	movwf	fsr2l,c
  3272  00358C  0E02               	movlw	high _gCountEnc
  3273  00358E  20F4               	addwfc	prodh,w,c
  3274  003590  6EDA               	movwf	fsr2h,c
  3275  003592  6ADE               	clrf	postinc2,c
  3276  003594  6ADE               	clrf	postinc2,c
  3277  003596  6ADE               	clrf	postinc2,c
  3278  003598  6ADD               	clrf	postdec2,c
  3279                           
  3280                           ;main.c: 117:         gDesiredTarget[i] = 0;
  3281  00359A  51AC               	movf	main@i& (0+255),w,b
  3282  00359C  0D02               	mullw	2
  3283  00359E  0EA0               	movlw	low _gDesiredTarget
  3284  0035A0  24F3               	addwf	243,w,c
  3285  0035A2  6ED9               	movwf	fsr2l,c
  3286  0035A4  0E02               	movlw	high _gDesiredTarget
  3287  0035A6  20F4               	addwfc	prodh,w,c
  3288  0035A8  6EDA               	movwf	fsr2h,c
  3289  0035AA  0E00               	movlw	0
  3290  0035AC  6EDE               	movwf	postinc2,c
  3291  0035AE  0E00               	movlw	0
  3292  0035B0  6EDD               	movwf	postdec2,c
  3293  0035B2                     
  3294                           ; BSR set to: 1
  3295                           ;main.c: 118:         SetPWM(i, 0);
  3296  0035B2  0E00               	movlw	0
  3297  0035B4  6E23               	movwf	(SetPWM@aDutyCycle+1)^0,c
  3298  0035B6  0E00               	movlw	0
  3299  0035B8  6E22               	movwf	SetPWM@aDutyCycle^0,c
  3300  0035BA  51AC               	movf	main@i& (0+255),w,b
  3301  0035BC  ECBE  F03B         	call	_SetPWM
  3302  0035C0                     
  3303                           ;main.c: 119:     }
  3304  0035C0  0101               	movlb	1	; () banked
  3305  0035C2  2BAC               	incf	main@i& (0+255),f,b
  3306  0035C4                     
  3307                           ; BSR set to: 1
  3308  0035C4  0E01               	movlw	1
  3309  0035C6  65AC               	cpfsgt	main@i& (0+255),b
  3310  0035C8  EFE8  F01A         	goto	u14381
  3311  0035CC  EFEA  F01A         	goto	u14380
  3312  0035D0                     u14381:
  3313  0035D0  EFC1  F01A         	goto	l14134
  3314  0035D4                     u14380:
  3315  0035D4                     
  3316                           ; BSR set to: 1
  3317                           ;main.c: 120:     LATA0 = LED_ON;
  3318  0035D4  9089               	bcf	3977,0,c	;volatile
  3319  0035D6                     
  3320                           ; BSR set to: 1
  3321                           ;main.c: 122:     ResetScreen();
  3322  0035D6  EC86  F033         	call	_ResetScreen	;wreg free
  3323  0035DA                     
  3324                           ;main.c: 124:     microshell_init(&ms, utx, urx, action_hook);
  3325  0035DA  0E95               	movlw	low main@ms
  3326  0035DC  0100               	movlb	0	; () banked
  3327  0035DE  6F60               	movwf	microshell_init@handle& (0+255),b
  3328  0035E0  0E01               	movlw	high main@ms
  3329  0035E2  6F61               	movwf	(microshell_init@handle+1)& (0+255),b
  3330  0035E4  0E00               	movlw	0
  3331  0035E6  6F62               	movwf	microshell_init@uart_putc& (0+255),b
  3332  0035E8  0E00               	movlw	0
  3333  0035EA  6F63               	movwf	(microshell_init@uart_putc+1)& (0+255),b
  3334  0035EC  0E00               	movlw	0
  3335  0035EE  6F64               	movwf	microshell_init@uart_getc& (0+255),b
  3336  0035F0  0E00               	movlw	0
  3337  0035F2  6F65               	movwf	(microshell_init@uart_getc+1)& (0+255),b
  3338  0035F4  0E00               	movlw	0
  3339  0035F6  6F66               	movwf	microshell_init@action_hook& (0+255),b
  3340  0035F8  0E00               	movlw	0
  3341  0035FA  6F67               	movwf	(microshell_init@action_hook+1)& (0+255),b
  3342  0035FC  ECF4  F039         	call	_microshell_init	;wreg free
  3343  003600                     
  3344                           ;main.c: 125:     mscmd_init(&mscmd, table, sizeof(table) / sizeof(table[0]), &usrobj);
  3345  003600  0EA6               	movlw	low main@mscmd
  3346  003602  6E1C               	movwf	mscmd_init@handle^0,c
  3347  003604  0E01               	movlw	high main@mscmd
  3348  003606  6E1D               	movwf	(mscmd_init@handle+1)^0,c
  3349  003608  0E00               	movlw	low _table
  3350  00360A  6E1E               	movwf	mscmd_init@command_table^0,c
  3351  00360C  0E03               	movlw	high _table
  3352  00360E  6E1F               	movwf	(mscmd_init@command_table+1)^0,c
  3353  003610  0E00               	movlw	0
  3354  003612  6E21               	movwf	(mscmd_init@command_count+1)^0,c
  3355  003614  0E1F               	movlw	31
  3356  003616  6E20               	movwf	mscmd_init@command_count^0,c
  3357  003618  0EC4               	movlw	low _usrobj
  3358  00361A  6E22               	movwf	mscmd_init@usrobj^0,c
  3359  00361C  0E02               	movlw	high _usrobj
  3360  00361E  6E23               	movwf	(mscmd_init@usrobj+1)^0,c
  3361  003620  ECFA  F03B         	call	_mscmd_init	;wreg free
  3362  003624                     
  3363                           ;main.c: 126:     for(i = 0;i < (32);i++){
  3364  003624  0E00               	movlw	0
  3365  003626  0101               	movlb	1	; () banked
  3366  003628  6FAC               	movwf	main@i& (0+255),b
  3367  00362A                     l14154:
  3368                           
  3369                           ; BSR set to: 1
  3370                           ;main.c: 127:         buf[i] = 0x00;
  3371  00362A  0E73               	movlw	low main@buf
  3372  00362C  25AC               	addwf	main@i& (0+255),w,b
  3373  00362E  6ED9               	movwf	fsr2l,c
  3374  003630  6ADA               	clrf	fsr2h,c
  3375  003632  0E01               	movlw	high main@buf
  3376  003634  22DA               	addwfc	fsr2h,f,c
  3377  003636  0E00               	movlw	0
  3378  003638  6EDF               	movwf	indf2,c
  3379  00363A                     
  3380                           ; BSR set to: 1
  3381                           ;main.c: 128:     }
  3382  00363A  2BAC               	incf	main@i& (0+255),f,b
  3383  00363C                     
  3384                           ; BSR set to: 1
  3385  00363C  0E1F               	movlw	31
  3386  00363E  65AC               	cpfsgt	main@i& (0+255),b
  3387  003640  EF24  F01B         	goto	u14391
  3388  003644  EF26  F01B         	goto	u14390
  3389  003648                     u14391:
  3390  003648  EF15  F01B         	goto	l14154
  3391  00364C                     u14390:
  3392  00364C                     l14160:
  3393                           
  3394                           ; BSR set to: 1
  3395                           ;main.c: 129:     i = 0;
  3396  00364C  0E00               	movlw	0
  3397  00364E  6FAC               	movwf	main@i& (0+255),b
  3398  003650                     l14162:
  3399                           
  3400                           ;main.c: 131:         if(myKbhit()){
  3401  003650  ECE7  F03D         	call	_myKbhit	;wreg free
  3402  003654  0900               	iorlw	0
  3403  003656  B4D8               	btfsc	status,2,c
  3404  003658  EF30  F01B         	goto	u14401
  3405  00365C  EF32  F01B         	goto	u14400
  3406  003660                     u14401:
  3407  003660  EFA3  F01B         	goto	l14202
  3408  003664                     u14400:
  3409  003664                     
  3410                           ;main.c: 132:             if(gFlgEcho)
  3411  003664  0101               	movlb	1	; () banked
  3412  003666  51B0               	movf	_gFlgEcho& (0+255),w,b
  3413  003668  B4D8               	btfsc	status,2,c
  3414  00366A  EF39  F01B         	goto	u14411
  3415  00366E  EF3B  F01B         	goto	u14410
  3416  003672                     u14411:
  3417  003672  EF41  F01B         	goto	l14168
  3418  003676                     u14410:
  3419  003676                     
  3420                           ; BSR set to: 1
  3421                           ;main.c: 133:                 c = myGetche();
  3422  003676  ECC4  F03D         	call	_myGetche	;wreg free
  3423  00367A  0101               	movlb	1	; () banked
  3424  00367C  6FA5               	movwf	main@c& (0+255),b
  3425  00367E  EF45  F01B         	goto	l14170
  3426  003682                     l14168:
  3427                           
  3428                           ; BSR set to: 1
  3429                           ;main.c: 135:                 c = myGetch();
  3430  003682  ECBB  F03D         	call	_myGetch	;wreg free
  3431  003686  0101               	movlb	1	; () banked
  3432  003688  6FA5               	movwf	main@c& (0+255),b
  3433  00368A                     l14170:
  3434                           
  3435                           ; BSR set to: 1
  3436                           ;main.c: 136:             if ((c != '\r') && (c != '\n')){
  3437  00368A  0E0D               	movlw	13
  3438  00368C  19A5               	xorwf	main@c& (0+255),w,b
  3439  00368E  B4D8               	btfsc	status,2,c
  3440  003690  EF4C  F01B         	goto	u14421
  3441  003694  EF4E  F01B         	goto	u14420
  3442  003698                     u14421:
  3443  003698  EF6A  F01B         	goto	l14180
  3444  00369C                     u14420:
  3445  00369C                     
  3446                           ; BSR set to: 1
  3447  00369C  0E0A               	movlw	10
  3448  00369E  19A5               	xorwf	main@c& (0+255),w,b
  3449  0036A0  B4D8               	btfsc	status,2,c
  3450  0036A2  EF55  F01B         	goto	u14431
  3451  0036A6  EF57  F01B         	goto	u14430
  3452  0036AA                     u14431:
  3453  0036AA  EF6A  F01B         	goto	l14180
  3454  0036AE                     u14430:
  3455  0036AE                     
  3456                           ; BSR set to: 1
  3457                           ;main.c: 137:                 if (i < (32)){
  3458  0036AE  0E20               	movlw	32
  3459  0036B0  61AC               	cpfslt	main@i& (0+255),b
  3460  0036B2  EF5D  F01B         	goto	u14441
  3461  0036B6  EF5F  F01B         	goto	u14440
  3462  0036BA                     u14441:
  3463  0036BA  EFBF  F01B         	goto	l899
  3464  0036BE                     u14440:
  3465  0036BE                     
  3466                           ; BSR set to: 1
  3467                           ;main.c: 138:                     buf[i] = c;
  3468  0036BE  0E73               	movlw	low main@buf
  3469  0036C0  25AC               	addwf	main@i& (0+255),w,b
  3470  0036C2  6ED9               	movwf	fsr2l,c
  3471  0036C4  6ADA               	clrf	fsr2h,c
  3472  0036C6  0E01               	movlw	high main@buf
  3473  0036C8  22DA               	addwfc	fsr2h,f,c
  3474  0036CA  C1A5  FFDF         	movff	main@c,indf2
  3475  0036CE                     
  3476                           ; BSR set to: 1
  3477                           ;main.c: 139:                     i++;
  3478  0036CE  2BAC               	incf	main@i& (0+255),f,b
  3479  0036D0  EF28  F01B         	goto	l14162
  3480  0036D4                     l14180:
  3481                           
  3482                           ; BSR set to: 1
  3483                           ;main.c: 143:                 MSCMD_USER_RESULT r;;main.c: 144:                 mscmd_ex
      +                          ecute(&mscmd, buf, &r);
  3484  0036D4  0EA6               	movlw	low main@mscmd
  3485  0036D6  6F6A               	movwf	mscmd_execute@handle& (0+255),b
  3486  0036D8  0E01               	movlw	high main@mscmd
  3487  0036DA  6F6B               	movwf	(mscmd_execute@handle+1)& (0+255),b
  3488  0036DC  0E73               	movlw	low main@buf
  3489  0036DE  6F6C               	movwf	mscmd_execute@text& (0+255),b
  3490  0036E0  0E01               	movlw	high main@buf
  3491  0036E2  6F6D               	movwf	(mscmd_execute@text+1)& (0+255),b
  3492  0036E4  0E93               	movlw	low main@r
  3493  0036E6  6F6E               	movwf	mscmd_execute@result& (0+255),b
  3494  0036E8  0E01               	movlw	high main@r
  3495  0036EA  6F6F               	movwf	(mscmd_execute@result+1)& (0+255),b
  3496  0036EC  EC1A  F02B         	call	_mscmd_execute	;wreg free
  3497  0036F0                     
  3498                           ;main.c: 145:                 myPuts("\r\n");
  3499  0036F0  0EFB               	movlw	low (STR_45+20)
  3500  0036F2  6E1D               	movwf	myPuts@s^0,c
  3501  0036F4  0EFD               	movlw	high (STR_45+20)
  3502  0036F6  6E1E               	movwf	(myPuts@s+1)^0,c
  3503  0036F8  EC17  F03C         	call	_myPuts	;wreg free
  3504  0036FC                     
  3505                           ;main.c: 146:                 if(gFlgEcho)
  3506  0036FC  0101               	movlb	1	; () banked
  3507  0036FE  51B0               	movf	_gFlgEcho& (0+255),w,b
  3508  003700  B4D8               	btfsc	status,2,c
  3509  003702  EF85  F01B         	goto	u14451
  3510  003706  EF87  F01B         	goto	u14450
  3511  00370A                     u14451:
  3512  00370A  EF8D  F01B         	goto	l14188
  3513  00370E                     u14450:
  3514  00370E                     
  3515                           ; BSR set to: 1
  3516                           ;main.c: 147:                     myPuts(":");
  3517  00370E  0EDD               	movlw	low STR_39
  3518  003710  6E1D               	movwf	myPuts@s^0,c
  3519  003712  0EFF               	movlw	high STR_39
  3520  003714  6E1E               	movwf	(myPuts@s+1)^0,c
  3521  003716  EC17  F03C         	call	_myPuts	;wreg free
  3522  00371A                     l14188:
  3523                           
  3524                           ;main.c: 148:                 for(i = 0;i < (32);i++){
  3525  00371A  0E00               	movlw	0
  3526  00371C  0101               	movlb	1	; () banked
  3527  00371E  6FAC               	movwf	main@i& (0+255),b
  3528  003720                     l14194:
  3529                           
  3530                           ; BSR set to: 1
  3531                           ;main.c: 149:                     buf[i] = 0;
  3532  003720  0E73               	movlw	low main@buf
  3533  003722  25AC               	addwf	main@i& (0+255),w,b
  3534  003724  6ED9               	movwf	fsr2l,c
  3535  003726  6ADA               	clrf	fsr2h,c
  3536  003728  0E01               	movlw	high main@buf
  3537  00372A  22DA               	addwfc	fsr2h,f,c
  3538  00372C  0E00               	movlw	0
  3539  00372E  6EDF               	movwf	indf2,c
  3540  003730                     
  3541                           ; BSR set to: 1
  3542                           ;main.c: 150:                 }
  3543  003730  2BAC               	incf	main@i& (0+255),f,b
  3544  003732                     
  3545                           ; BSR set to: 1
  3546  003732  0E1F               	movlw	31
  3547  003734  65AC               	cpfsgt	main@i& (0+255),b
  3548  003736  EF9F  F01B         	goto	u14461
  3549  00373A  EFA1  F01B         	goto	u14460
  3550  00373E                     u14461:
  3551  00373E  EF90  F01B         	goto	l14194
  3552  003742                     u14460:
  3553  003742  EF26  F01B         	goto	l14160
  3554  003746                     l14202:
  3555                           
  3556                           ;main.c: 156:             if (gFlgControlLoop == kOPENLOOP){
  3557  003746  0101               	movlb	1	; () banked
  3558  003748  51B1               	movf	_gFlgControlLoop& (0+255),w,b
  3559  00374A  A4D8               	btfss	status,2,c
  3560  00374C  EFAA  F01B         	goto	u14471
  3561  003750  EFAC  F01B         	goto	u14470
  3562  003754                     u14471:
  3563  003754  EFB9  F01B         	goto	l14208
  3564  003758                     u14470:
  3565  003758                     
  3566                           ; BSR set to: 1
  3567                           ;main.c: 157:                 if(gFlgTzEnable == 1)
  3568  003758  0440               	decf	_gFlgTzEnable^0,w,c
  3569  00375A  1041               	iorwf	(_gFlgTzEnable+1)^0,w,c
  3570  00375C  A4D8               	btfss	status,2,c
  3571  00375E  EFB3  F01B         	goto	u14481
  3572  003762  EFB5  F01B         	goto	u14480
  3573  003766                     u14481:
  3574  003766  EFBF  F01B         	goto	l899
  3575  00376A                     u14480:
  3576  00376A                     
  3577                           ; BSR set to: 1
  3578                           ;main.c: 158:                     TrapezoidalAccel();
  3579  00376A  EC34  F02E         	call	_TrapezoidalAccel	;wreg free
  3580  00376E  EF28  F01B         	goto	l14162
  3581  003772                     l14208:
  3582                           
  3583                           ; BSR set to: 1
  3584                           ;main.c: 166:                 PID();
  3585  003772  ECF1  F03D         	call	_PID	;wreg free
  3586  003776                     
  3587                           ;main.c: 167:                 BlinkAlive();
  3588  003776  ECCC  F03D         	call	_BlinkAlive	;wreg free
  3589  00377A  EF28  F01B         	goto	l14162
  3590  00377E                     l899:
  3591                           
  3592                           ; BSR set to: 1
  3593  00377E  EF28  F01B         	goto	l14162
  3594  003782  EF58  F000         	goto	start
  3595  003786                     __end_of_main:
  3596                           	opt callstack 0
  3597                           
  3598 ;; *************** function _read_int_from_eeprom *****************
  3599 ;; Defined at:
  3600 ;;		line 78 in file "eeprom.c"
  3601 ;; Parameters:    Size  Location     Type
  3602 ;;  aEadd           1    wreg     unsigned char 
  3603 ;;  aData           2   29[COMRAM] PTR int 
  3604 ;;		 -> gTzStep(2), gTzPeriod(2), gFlgTzEnable(2), 
  3605 ;; Auto vars:     Size  Location     Type
  3606 ;;  aEadd           1   31[COMRAM] unsigned char 
  3607 ;;  i               2   36[COMRAM] unsigned int 
  3608 ;;  temp            2   34[COMRAM] int 
  3609 ;;  pointer         2   32[COMRAM] PTR unsigned char 
  3610 ;;		 -> read_int_from_eeprom@temp(2), 
  3611 ;; Return value:  Size  Location     Type
  3612 ;;                  1    wreg      void 
  3613 ;; Registers used:
  3614 ;;		wreg, fsr2l, fsr2h, status,2, status,0, cstack
  3615 ;; Tracked objects:
  3616 ;;		On entry : 0/0
  3617 ;;		On exit  : 0/0
  3618 ;;		Unchanged: 0/0
  3619 ;; Data sizes:     COMRAM   BANK0   BANK1   BANK2   BANK3   BANK4   BANK5   BANK6   BANK7   BANK8   BANK9  BANK10  BANK1
      +1  BANK12  BANK13  BANK14  BANK15
  3620 ;;      Params:         2       0       0       0       0       0       0       0       0       0       0       0       
      +0       0       0       0       0
  3621 ;;      Locals:         7       0       0       0       0       0       0       0       0       0       0       0       
      +0       0       0       0       0
  3622 ;;      Temps:          0       0       0       0       0       0       0       0       0       0       0       0       
      +0       0       0       0       0
  3623 ;;      Totals:         9       0       0       0       0       0       0       0       0       0       0       0       
      +0       0       0       0       0
  3624 ;;Total ram usage:        9 bytes
  3625 ;; Hardware stack levels used:    1
  3626 ;; Hardware stack levels required when called:    6
  3627 ;; This function calls:
  3628 ;;		_eep_read
  3629 ;; This function is called by:
  3630 ;;		_main
  3631 ;; This function uses a non-reentrant model
  3632 ;;
  3633                           
  3634                           	psect	text1
  3635  007248                     __ptext1:
  3636                           	opt callstack 0
  3637  007248                     _read_int_from_eeprom:
  3638                           	opt callstack 24
  3639                           
  3640                           ; BSR set to: 1
  3641                           ;incstack = 0
  3642                           ;read_int_from_eeprom@aEadd stored from wreg
  3643  007248  6E20               	movwf	read_int_from_eeprom@aEadd^0,c
  3644  00724A                     
  3645                           ;eeprom.c: 78: void read_int_from_eeprom(unsigned char aEadd, int *aData);eeprom.c: 79: 
      +                          {;eeprom.c: 80:     unsigned int i;;eeprom.c: 81:     int temp;;eeprom.c: 82:     char *
      +                          pointer;;eeprom.c: 84:     pointer = (char *)&temp;
  3646  00724A  0E23               	movlw	low read_int_from_eeprom@temp
  3647  00724C  6E21               	movwf	read_int_from_eeprom@pointer^0,c
  3648  00724E  0E00               	movlw	high read_int_from_eeprom@temp
  3649  007250  6E22               	movwf	(read_int_from_eeprom@pointer+1)^0,c
  3650                           
  3651                           ;eeprom.c: 85:     for(i = 0; i < sizeof(temp); i++){
  3652  007252  0E00               	movlw	0
  3653  007254  6E26               	movwf	(read_int_from_eeprom@i+1)^0,c
  3654  007256  0E00               	movlw	0
  3655  007258  6E25               	movwf	read_int_from_eeprom@i^0,c
  3656  00725A                     l13892:
  3657                           
  3658                           ;eeprom.c: 86:         pointer[i] = eep_read(aEadd + i);
  3659  00725A  5025               	movf	read_int_from_eeprom@i^0,w,c
  3660  00725C  2421               	addwf	read_int_from_eeprom@pointer^0,w,c
  3661  00725E  6ED9               	movwf	fsr2l,c
  3662  007260  5026               	movf	(read_int_from_eeprom@i+1)^0,w,c
  3663  007262  2022               	addwfc	(read_int_from_eeprom@pointer+1)^0,w,c
  3664  007264  6EDA               	movwf	fsr2h,c
  3665  007266  5020               	movf	read_int_from_eeprom@aEadd^0,w,c
  3666  007268  2425               	addwf	read_int_from_eeprom@i^0,w,c
  3667  00726A  EC8E  F03D         	call	_eep_read
  3668  00726E  6EDF               	movwf	indf2,c
  3669  007270                     
  3670                           ;eeprom.c: 87:     }
  3671  007270  4A25               	infsnz	read_int_from_eeprom@i^0,f,c
  3672  007272  2A26               	incf	(read_int_from_eeprom@i+1)^0,f,c
  3673  007274  5026               	movf	(read_int_from_eeprom@i+1)^0,w,c
  3674  007276  E109               	bnz	u14220
  3675  007278  0E02               	movlw	2
  3676  00727A  5C25               	subwf	read_int_from_eeprom@i^0,w,c
  3677  00727C  A0D8               	btfss	status,0,c
  3678  00727E  EF43  F039         	goto	u14221
  3679  007282  EF45  F039         	goto	u14220
  3680  007286                     u14221:
  3681  007286  EF2D  F039         	goto	l13892
  3682  00728A                     u14220:
  3683  00728A                     
  3684                           ;eeprom.c: 89:     *aData = temp;
  3685  00728A  C01E  FFD9         	movff	read_int_from_eeprom@aData,fsr2l
  3686  00728E  C01F  FFDA         	movff	read_int_from_eeprom@aData+1,fsr2h
  3687  007292  C023  FFDE         	movff	read_int_from_eeprom@temp,postinc2
  3688  007296  C024  FFDD         	movff	read_int_from_eeprom@temp+1,postdec2
  3689  00729A  0012               	return		;funcret
  3690  00729C                     __end_of_read_int_from_eeprom:
  3691                           	opt callstack 0
  3692                           
  3693 ;; *************** function _myKbhit *****************
  3694 ;; Defined at:
  3695 ;;		line 120 in file "UART.c"
  3696 ;; Parameters:    Size  Location     Type
  3697 ;;		None
  3698 ;; Auto vars:     Size  Location     Type
  3699 ;;		None
  3700 ;; Return value:  Size  Location     Type
  3701 ;;                  1    wreg      unsigned char 
  3702 ;; Registers used:
  3703 ;;		wreg
  3704 ;; Tracked objects:
  3705 ;;		On entry : 0/0
  3706 ;;		On exit  : 0/0
  3707 ;;		Unchanged: 0/0
  3708 ;; Data sizes:     COMRAM   BANK0   BANK1   BANK2   BANK3   BANK4   BANK5   BANK6   BANK7   BANK8   BANK9  BANK10  BANK1
      +1  BANK12  BANK13  BANK14  BANK15
  3709 ;;      Params:         0       0       0       0       0       0       0       0       0       0       0       0       
      +0       0       0       0       0
  3710 ;;      Locals:         0       0       0       0       0       0       0       0       0       0       0       0       
      +0       0       0       0       0
  3711 ;;      Temps:          0       0       0       0       0       0       0       0       0       0       0       0       
      +0       0       0       0       0
  3712 ;;      Totals:         0       0       0       0       0       0       0       0       0       0       0       0       
      +0       0       0       0       0
  3713 ;;Total ram usage:        0 bytes
  3714 ;; Hardware stack levels used:    1
  3715 ;; Hardware stack levels required when called:    5
  3716 ;; This function calls:
  3717 ;;		Nothing
  3718 ;; This function is called by:
  3719 ;;		_main
  3720 ;; This function uses a non-reentrant model
  3721 ;;
  3722                           
  3723                           	psect	text2
  3724  007BCE                     __ptext2:
  3725                           	opt callstack 0
  3726  007BCE                     _myKbhit:
  3727                           	opt callstack 25
  3728  007BCE                     
  3729                           ;UART.c: 122:     return RC1IF;
  3730  007BCE  0E00               	movlw	0
  3731  007BD0  BA9E               	btfsc	3998,5,c	;volatile
  3732  007BD2  0E01               	movlw	1
  3733  007BD4  0012               	return		;funcret
  3734  007BD6                     __end_of_myKbhit:
  3735                           	opt callstack 0
  3736                           
  3737 ;; *************** function _myGetche *****************
  3738 ;; Defined at:
  3739 ;;		line 113 in file "UART.c"
  3740 ;; Parameters:    Size  Location     Type
  3741 ;;		None
  3742 ;; Auto vars:     Size  Location     Type
  3743 ;;  c               1   28[COMRAM] unsigned char 
  3744 ;; Return value:  Size  Location     Type
  3745 ;;                  1    wreg      unsigned char 
  3746 ;; Registers used:
  3747 ;;		wreg, fsr2l, fsr2h, status,2, status,0, cstack
  3748 ;; Tracked objects:
  3749 ;;		On entry : 0/0
  3750 ;;		On exit  : 0/0
  3751 ;;		Unchanged: 0/0
  3752 ;; Data sizes:     COMRAM   BANK0   BANK1   BANK2   BANK3   BANK4   BANK5   BANK6   BANK7   BANK8   BANK9  BANK10  BANK1
      +1  BANK12  BANK13  BANK14  BANK15
  3753 ;;      Params:         0       0       0       0       0       0       0       0       0       0       0       0       
      +0       0       0       0       0
  3754 ;;      Locals:         1       0       0       0       0       0       0       0       0       0       0       0       
      +0       0       0       0       0
  3755 ;;      Temps:          0       0       0       0       0       0       0       0       0       0       0       0       
      +0       0       0       0       0
  3756 ;;      Totals:         1       0       0       0       0       0       0       0       0       0       0       0       
      +0       0       0       0       0
  3757 ;;Total ram usage:        1 bytes
  3758 ;; Hardware stack levels used:    1
  3759 ;; Hardware stack levels required when called:    6
  3760 ;; This function calls:
  3761 ;;		_myGetch
  3762 ;;		_putch
  3763 ;; This function is called by:
  3764 ;;		_main
  3765 ;; This function uses a non-reentrant model
  3766 ;;
  3767                           
  3768                           	psect	text3
  3769  007B88                     __ptext3:
  3770                           	opt callstack 0
  3771  007B88                     _myGetche:
  3772                           	opt callstack 24
  3773  007B88                     
  3774                           ;UART.c: 115:     unsigned char c;;UART.c: 116:     putch(c=myGetch());
  3775  007B88  ECBB  F03D         	call	_myGetch	;wreg free
  3776  007B8C  6E1D               	movwf	myGetche@c^0,c
  3777  007B8E  501D               	movf	myGetche@c^0,w,c
  3778  007B90  EC77  F037         	call	_putch
  3779  007B94                     
  3780                           ;UART.c: 117:     return c;
  3781  007B94  501D               	movf	myGetche@c^0,w,c
  3782  007B96  0012               	return		;funcret
  3783  007B98                     __end_of_myGetche:
  3784                           	opt callstack 0
  3785                           
  3786 ;; *************** function _myGetch *****************
  3787 ;; Defined at:
  3788 ;;		line 106 in file "UART.c"
  3789 ;; Parameters:    Size  Location     Type
  3790 ;;		None
  3791 ;; Auto vars:     Size  Location     Type
  3792 ;;		None
  3793 ;; Return value:  Size  Location     Type
  3794 ;;                  1    wreg      unsigned char 
  3795 ;; Registers used:
  3796 ;;		wreg, status,2
  3797 ;; Tracked objects:
  3798 ;;		On entry : 0/0
  3799 ;;		On exit  : 0/0
  3800 ;;		Unchanged: 0/0
  3801 ;; Data sizes:     COMRAM   BANK0   BANK1   BANK2   BANK3   BANK4   BANK5   BANK6   BANK7   BANK8   BANK9  BANK10  BANK1
      +1  BANK12  BANK13  BANK14  BANK15
  3802 ;;      Params:         0       0       0       0       0       0       0       0       0       0       0       0       
      +0       0       0       0       0
  3803 ;;      Locals:         0       0       0       0       0       0       0       0       0       0       0       0       
      +0       0       0       0       0
  3804 ;;      Temps:          0       0       0       0       0       0       0       0       0       0       0       0       
      +0       0       0       0       0
  3805 ;;      Totals:         0       0       0       0       0       0       0       0       0       0       0       0       
      +0       0       0       0       0
  3806 ;;Total ram usage:        0 bytes
  3807 ;; Hardware stack levels used:    1
  3808 ;; Hardware stack levels required when called:    5
  3809 ;; This function calls:
  3810 ;;		Nothing
  3811 ;; This function is called by:
  3812 ;;		_main
  3813 ;;		_myGetche
  3814 ;;		_urx
  3815 ;; This function uses a non-reentrant model
  3816 ;;
  3817                           
  3818                           	psect	text4
  3819  007B76                     __ptext4:
  3820                           	opt callstack 0
  3821  007B76                     _myGetch:
  3822                           	opt callstack 24
  3823  007B76                     l1069:
  3824                           
  3825                           ;UART.c: 108:     while(!RC1IF)
  3826  007B76  AA9E               	btfss	3998,5,c	;volatile
  3827  007B78  EFC0  F03D         	goto	u13561
  3828  007B7C  EFC2  F03D         	goto	u13560
  3829  007B80                     u13561:
  3830  007B80  EFBB  F03D         	goto	l1069
  3831  007B84                     u13560:
  3832  007B84                     
  3833                           ;UART.c: 110:     return RCREG1;
  3834  007B84  50AE               	movf	174,w,c	;volatile
  3835  007B86  0012               	return		;funcret
  3836  007B88                     __end_of_myGetch:
  3837                           	opt callstack 0
  3838                           
  3839 ;; *************** function _mscmd_init *****************
  3840 ;; Defined at:
  3841 ;;		line 38 in file "MS_lib/util/mscmd.c"
  3842 ;; Parameters:    Size  Location     Type
  3843 ;;  handle          2   27[COMRAM] PTR struct .
  3844 ;;		 -> main@mscmd(6), 
  3845 ;;  command_tabl    2   29[COMRAM] PTR struct .
  3846 ;;		 -> table(124), 
  3847 ;;  command_coun    2   31[COMRAM] int 
  3848 ;;  usrobj          2   33[COMRAM] PTR void 
  3849 ;;		 -> usrobj(2), 
  3850 ;; Auto vars:     Size  Location     Type
  3851 ;;		None
  3852 ;; Return value:  Size  Location     Type
  3853 ;;                  2   27[COMRAM] int 
  3854 ;; Registers used:
  3855 ;;		wreg, fsr2l, fsr2h, status,2, status,0
  3856 ;; Tracked objects:
  3857 ;;		On entry : 0/0
  3858 ;;		On exit  : 0/0
  3859 ;;		Unchanged: 0/0
  3860 ;; Data sizes:     COMRAM   BANK0   BANK1   BANK2   BANK3   BANK4   BANK5   BANK6   BANK7   BANK8   BANK9  BANK10  BANK1
      +1  BANK12  BANK13  BANK14  BANK15
  3861 ;;      Params:         8       0       0       0       0       0       0       0       0       0       0       0       
      +0       0       0       0       0
  3862 ;;      Locals:         0       0       0       0       0       0       0       0       0       0       0       0       
      +0       0       0       0       0
  3863 ;;      Temps:          0       0       0       0       0       0       0       0       0       0       0       0       
      +0       0       0       0       0
  3864 ;;      Totals:         8       0       0       0       0       0       0       0       0       0       0       0       
      +0       0       0       0       0
  3865 ;;Total ram usage:        8 bytes
  3866 ;; Hardware stack levels used:    1
  3867 ;; Hardware stack levels required when called:    5
  3868 ;; This function calls:
  3869 ;;		Nothing
  3870 ;; This function is called by:
  3871 ;;		_main
  3872 ;; This function uses a non-reentrant model
  3873 ;;
  3874                           
  3875                           	psect	text5
  3876  0077F4                     __ptext5:
  3877                           	opt callstack 0
  3878  0077F4                     _mscmd_init:
  3879                           	opt callstack 25
  3880  0077F4                     
  3881                           ;MS_lib/util/mscmd.c: 38: int mscmd_init(MSCMD *handle, MSCMD_COMMAND_TABLE *command_tab
      +                          le, int command_count, MSCMD_USER_OBJECT usrobj);MS_lib/util/mscmd.c: 39: {;MS_lib/util/
      +                          mscmd.c: 40:     handle->command_table = command_table;
  3882  0077F4  C01C  FFD9         	movff	mscmd_init@handle,fsr2l
  3883  0077F8  C01D  FFDA         	movff	mscmd_init@handle+1,fsr2h
  3884  0077FC  C01E  FFDE         	movff	mscmd_init@command_table,postinc2
  3885  007800  C01F  FFDD         	movff	mscmd_init@command_table+1,postdec2
  3886  007804                     
